:100000000C9435000C945D000C945D000C945D0024
:100010000C945D000C945D000C945D000C945D00EC
:100020000C945D000C945D000C945D000C945D00DC
:100030000C945D000C945D000C945D000C945D00CC
:100040000C94AB050C945D000C943F020C9471026F
:100050000C945D000C945D000C945D000C945D00AC
:100060000C945D000C945D00A10211241FBECFEF23
:10007000D8E0DEBFCDBF11E0A0E0B1E0EEE3F1E1FA
:1000800002C005900D92A433B107D9F721E0A4E393
:10009000B1E001C01D92AC3DB207E1F710E0CAE645
:1000A000D0E004C02297FE010E948A08C836D1071A
:1000B000C9F70E94E5020C949D080C94000026E00C
:1000C00040EC52E160E070E086E391E00C94DD01E9
:1000D0000895CF92DF92EF92FF92CF9386E391E063
:1000E0000E94A805C62F60FF14C085E391E00E941E
:1000F000E7006B017C0166E071E086E391E00E941D
:10010000320322E030E0B701A60186E391E00E94CD
:10011000DD04C1FF14C085E391E00E94EC006B0197
:100120007C016AE071E086E391E00E94320322E004
:1001300030E0B701A60186E391E00E94DD04C2FF32
:1001400014C085E391E00E94F1006B017C016EE038
:1001500071E086E391E00E94320322E030E0B701D3
:10016000A60186E391E00E94DD04C3FF14C085E38D
:1001700091E00E94F6006B017C0162E171E086E390
:1001800091E00E94320322E030E0B701A60186E34D
:1001900091E00E94DD0486E391E0CF91FF90EF9023
:1001A000DF90CF900C94560184E391E00C945F00B3
:1001B00084E391E00C94680086E391E00E94FA00E9
:1001C000892B21F084E391E00C946900089560E0AC
:1001D00070E088E492E4089560E070E088E791E4DC
:1001E00008956DEC7CEC87E992E4089560E070E09E
:1001F000CB010895FC01818D228D90E0805C9F4FA2
:10020000821B91098F7399270895FC01918D828D2E
:10021000981731F0828DE80FF11D858D90E00895DB
:100220008FEF9FEF0895FC01918D828D981761F0FB
:10023000828DDF01A80FB11D5D968C91928D9F5F1D
:100240009F73928F90E008958FEF9FEF089587E955
:1002500092E0892B49F08CED90E0892B29F00E94E7
:10026000970281110C94DC000895FC01848DDF015C
:10027000A80FB11DA35ABF4F2C91848D90E0019619
:100280008F739927848FA689B7892C93A089B18908
:100290008C9180648C93938D848D981306C0028812
:1002A000F389E02D80818F7D80830895CF93DF9344
:1002B000EC01888D8823C9F0EA89FB89808185FD5E
:1002C00005C0A889B9898C9186FD0FC00FB607FCBF
:1002D000F5CF808185FFF2CFA889B9898C9185FF00
:1002E000EDCFCE010E943501E7CFDF91CF91089588
:1002F000CF92DF92FF920F931F93CF93DF931F92C2
:10030000CDB7DEB76C01DC015B969C915B975C9688
:100310008C915C97981307C05096ED91FC91519782
:10032000808185FD32C0F601038D10E00F5F1F4F05
:100330000F731127F02EF601848DF81211C00FB63D
:1003400007FCF9CFD6015096ED91FC915197808131
:1003500085FFF1CFC60169830E9435016981EBCF2A
:10036000838DE80FF11DE35AFF4F6083D6015B9642
:100370000C935B975296ED91FC915397808180622C
:10038000808381E058968C930DC0D6015696ED91EE
:10039000FC91579760835096ED91FC915197808125
:1003A0008064808381E090E00F90DF91CF911F9176
:1003B0000F91FF90DF90CF900895BF92CF92DF9280
:1003C000EF92FF92CF93DF93EC016A017B01B22E93
:1003D000E889F98982E08083411581EE580761053B
:1003E0007105A1F060E079E08DE390E0A70196014E
:1003F0000E945B08215031094109510956954795E2
:1004000037952795211580E1380798F0E889F98913
:10041000108260E874E88EE190E0A70196010E94E6
:100420005B08215031094109510956954795379587
:100430002795EC85FD853083EE85FF852083188E1A
:10044000EC89FD89B082EA89FB89808180618083A3
:10045000EA89FB89808188608083EA89FB898081C1
:1004600080688083EA89FB8980818F7D8083DF912A
:10047000CF91FF90EF90DF90CF90BF9008951F92A3
:100480000F920FB60F9211242F938F939F93EF9398
:10049000FF93E0914601F09147018081E0914C018A
:1004A000F0914D0182FD12C0908180914F018F5FCC
:1004B0008F7320915001821751F0E0914F01F0E0CD
:1004C000EA5CFE4F958F80934F0101C08081FF91C0
:1004D000EF919F918F912F910F900FBE0F901F90D2
:1004E00018951F920F920FB60F9211242F933F93DE
:1004F0004F935F936F937F938F939F93AF93BF932C
:10050000EF93FF9386E391E00E943501FF91EF9115
:10051000BF91AF919F918F917F916F915F914F911B
:100520003F912F910F900FBE0F901F90189586E36B
:1005300091E00E94FA0021E0892B09F420E0822F4B
:100540000895109239011092380188EE93E0A0E0EE
:10055000B0E080933A0190933B01A0933C01B093AB
:100560003D018AE191E0909337018093360185EC5B
:1005700090E0909343018093420184EC90E090934B
:1005800045018093440180EC90E090934701809373
:10059000460181EC90E0909349018093480182EC00
:1005A00090E090934B0180934A0186EC90E0909309
:1005B0004D0180934C0110924F0110925001109206
:1005C000510110925201089508950E9401060E945F
:1005D000E4020E94D400C7E2D1E00E94D800209734
:1005E000E1F30E942701F9CFCF92DF92EF92FF92C1
:1005F0000F931F93CF93DF936C017A01EB01E60E0B
:10060000F71E00E010E0CE15DF0561F06991D6011C
:10061000ED91FC910190F081E02DC6010995080F44
:10062000191FF1CFC801DF91CF911F910F91FF905A
:10063000EF90DF90CF9008956115710581F0DB0197
:100640000D900020E9F7AD0141505109461B570BB1
:10065000DC01ED91FC910280F381E02D099480E0B2
:1006600090E008950C941C03DC01ED91FC91019045
:10067000F081E02D09940F931F93CF93DF93EC014A
:100680006DE00E9434038C016AE0CE010E943403C5
:10069000800F911FDF91CF911F910F9108958F923D
:1006A0009F92AF92BF92CF92DF92EF92FF920F9301
:1006B0001F93CF93DF93CDB7DEB7A1970FB6F89412
:1006C000DEBF0FBECDBF7C01C42EE52FCB01D22EE5
:1006D00019A221E02D1510F02AE0D22E8E010F5D17
:1006E0001F4F8D2C912CA12CB12C6C2D7E2FA50190
:1006F00094010E945B088C2DD29E80191124015018
:1007000011098A3014F4805D01C0895CF80180838E
:10071000211531054105510521F0C22EE32FCA01F3
:10072000E4CFB801C7010E941C03A1960FB6F8944C
:10073000DEBF0FBECDBFDF91CF911F910F91FF9014
:10074000EF90DF90CF90BF90AF909F908F900895E3
:10075000CF92DF92EF92FF920F931F93CF93DF938D
:10076000EC016A017B012115310579F4E881F981F9
:100770000190F081E02D642FDF91CF911F910F91B7
:10078000FF90EF90DF90CF9009942A303105E9F483
:1007900077FF1AC06DE20E9434038C01442755276D
:1007A000BA014C195D096E097F092AE0CE010E9449
:1007B0004F03800F911FDF91CF911F910F91FF90F9
:1007C000EF90DF90CF9008952AE0B701A601CE0107
:1007D000DF91CF911F910F91FF90EF90DF90CF901D
:1007E0000C944F034F925F926F927F928F929F92E1
:1007F000AF92BF92CF92DF92EF92FF920F931F932F
:10080000CF93DF93EC016A017B01B22E9A01AB0119
:10081000C701B6010E945708882319F066E271E00B
:1008200027C026013701E89477F82FEF3FEF4FE715
:100830005FE7C301B2010E94570881110DC02FEF7D
:100840003FEF4FE75FE7C301B2010E94A106181610
:100850001CF46AE271E00CC02FEF3FEF4FE75FE45A
:10086000C701B6010E94F0071816ACF46EE271E001
:10087000CE01DF91CF911F910F91FF90EF90DF900C
:10088000CF90BF90AF909F908F907F906F905F9030
:100890004F900C941C032FEF3FEF4FE75FECC70125
:1008A000B6010E94A10687FDE1CF20E030E0A9015A
:1008B000C701B6010E94A10687FF0AC06DE2CE0102
:1008C0000E9434038C01F7FAF094F7F8F09402C018
:1008D00000E010E0A12C60E070E080E09FE3AB144A
:1008E00041F020E030E040E251E40E94A506A394EC
:1008F000F6CF9B01AC01C701B6010E943D066B011A
:100900007C010E9412072B013C010E943E079B01C3
:10091000AC01C701B6010E943C066B017C012AE0D4
:10092000B301A201CE010E944F03080F191FBB2083
:1009300039F062E371E0CE010E941C03080F191F19
:100940007B2C772041F120E030E040E251E4C70108
:10095000B6010E94F4076B017C010E940D074B0158
:10096000AA2497FCA094BA2C2AE030E0B501A40197
:10097000CE010E94A803080F191FC501B4010E94EF
:1009800040079B01AC01C701B6010E943C066B0108
:100990007C017A94D6CFC801DF91CF911F910F913E
:1009A000FF90EF90DF90CF90BF90AF909F908F908F
:1009B0007F906F905F904F9008950F931F93CF9308
:1009C000DF93EC010E94F2038C01CE010E943B03F5
:1009D000800F911FDF91CF911F910F9108950F9379
:1009E0001F93CF93DF93EC010E94F5056887798709
:1009F0008A879B87E881F9810084F185E02DCE010B
:100A0000099597FF15C00E94F505088519852A8567
:100A10003B85601B710B820B930B0C811D812E811A
:100A20003F81601771078207930720F38FEF9FEFD5
:100A3000DF91CF911F910F910895CF93DF93EC0138
:100A4000CE010E94EF0497FD11C08D32910571F027
:100A50009C01205331092A30310540F0E881F981A9
:100A60000680F781E02DCE010995EACFDF91CF9185
:100A70000895CF92DF92FF920F931F93CF93DF934E
:100A800000D000D0CDB7DEB76C01062F0E941D0547
:100A9000FC0197FD4BC020E030E0A901F12C1127AB
:100AA00007FD1095E017F107E9F0ED32F105C1F00F
:100AB000CF01C0970A97B0F4AAE0B0E00E947D0889
:100AC0009B01AC01CF01AA2797FDA095BA2F280F53
:100AD000391F4A1F5B1F205331094109510902C0C8
:100AE000FF24F394D601ED91FC910680F781E02D6F
:100AF000C60129833A834B835C830995C6010E9412
:100B0000EF04FC01C09729813A814B815C810A97EF
:100B100048F2E017F10731F2FF2061F066277727EE
:100B2000CB01621B730B840B950B06C060E070E079
:100B3000CB0102C0CA01B9010F900F900F900F9026
:100B4000DF91CF911F910F91FF90DF90CF9008958B
:100B500061E00C9439051F920F920FB60F92112489
:100B60002F933F938F939F93AF93BF938091D40123
:100B70009091D501A091D601B091D7013091D301C8
:100B800023E0230F2D3720F40196A11DB11D05C0D0
:100B900026E8230F0296A11DB11D2093D301809357
:100BA000D4019093D501A093D601B093D701809141
:100BB000D8019091D901A091DA01B091DB010196A1
:100BC000A11DB11D8093D8019093D901A093DA01A2
:100BD000B093DB01BF91AF919F918F913F912F9186
:100BE0000F900FBE0F901F9018952FB7F89460913B
:100BF000D4017091D5018091D6019091D7012FBF7A
:100C00000895789484B5826084BD84B5816084BD84
:100C100085B5826085BD85B5816085BDEEE6F0E075
:100C2000808181608083E1E8F0E0108280818260D1
:100C30008083808181608083E0E8F0E08081816052
:100C40008083E1EBF0E0808184608083E0EBF0E082
:100C5000808181608083EAE7F0E080818460808326
:100C600080818260808380818160808380818068D0
:100C700080831092C10008955058BB27AA270ED038
:100C800075C166D130F06BD120F031F49F3F11F483
:100C90001EF45BC10EF4E095E7FB51C1E92F77D15B
:100CA00080F3BA17620773078407950718F071F489
:100CB0009EF58FC10EF4E0950B2EBA2FA02D0B01DF
:100CC000B90190010C01CA01A0011124FF27591B91
:100CD00099F0593F50F4503E68F11A16F040A22F97
:100CE000232F342F4427585FF3CF46953795279508
:100CF000A795F0405395C9F77EF41F16BA0B620B07
:100D0000730B840BBAF09150A1F0FF0FBB1F661F4D
:100D1000771F881FC2F70EC0BA0F621F731F841F90
:100D200048F4879577956795B795F7959E3F08F0B6
:100D3000B3CF9395880F08F09927EE0F9795879575
:100D40000895D9D008F481E008950CD00FC107D1DF
:100D500040F0FED030F021F45F3F19F0F0C05111A7
:100D600039C1F3C014D198F39923C9F35523B1F3D2
:100D7000951B550BBB27AA2762177307840738F00A
:100D80009F5F5F4F220F331F441FAA1FA9F333D069
:100D90000E2E3AF0E0E830D091505040E695001C1D
:100DA000CAF729D0FE2F27D0660F771F881FBB1FD9
:100DB000261737074807AB07B0E809F0BB0B802DB3
:100DC000BF01FF2793585F4F2AF09E3F510568F0FF
:100DD000B6C000C15F3FECF3983EDCF38695779593
:100DE0006795B795F7959F5FC9F7880F911D969501
:100DF000879597F90895E1E0660F771F881FBB1F5D
:100E0000621773078407BA0720F0621B730B840B09
:100E1000BA0BEE1F88F7E095089504D06894B111DD
:100E2000D9C00895BCD088F09F5790F0B92F99276A
:100E3000B751A0F0D1F0660F771F881F991F1AF0E5
:100E4000BA95C9F712C0B13081F0C3D0B1E00895AE
:100E5000C0C0672F782F8827B85F39F0B93FCCF32F
:100E6000869577956795B395D9F73EF490958095DB
:100E7000709561957F4F8F4F9F4F0895E89409C0FB
:100E800097FB3EF490958095709561957F4F8F4FBD
:100E90009F4F9923A9F0F92F96E9BB279395F695D3
:100EA000879577956795B795F111F8CFFAF4BB0F51
:100EB00011F460FF1BC06F5F7F4F8F4F9F4F16C0B5
:100EC000882311F096E911C0772321F09EE8872F3F
:100ED000762F05C0662371F096E8862F70E060E0FB
:100EE0002AF09A95660F771F881FDAF7880F969574
:100EF000879597F90895990F0008550FAA0BE0E818
:100F0000FEEF16161706E807F907C0F012161306CB
:100F1000E407F50798F0621B730B840B950B39F40B
:100F20000A2661F0232B242B252B21F408950A2671
:100F300009F4A140A6958FEF811D811D089597F9B1
:100F40009F6780E870E060E008959FEF80EC08956F
:100F500000240A9416161706180609060895002498
:100F60000A9412161306140605060895092E039412
:100F7000000C11F4882352F0BB0F40F4BF2B11F486
:100F800060FF04C06F5F7F4F8F4F9F4F089557FDE5
:100F90009058440F551F59F05F3F71F04795880FE7
:100FA00097FB991F61F09F3F79F08795089512167E
:100FB00013061406551FF2CF4695F1DF08C016162A
:100FC00017061806991FF1CF8695710561050894DB
:100FD0000895E894BB2766277727CB0197F90895F2
:100FE0008ADF08F48FEF08950BD0C0CFB1DF28F06F
:100FF000B6DF18F0952309F0A2CFA7CF1124EACFCE
:10100000C6DFA0F3959FD1F3950F50E0551F629F67
:10101000F001729FBB27F00DB11D639FAA27F00D51
:10102000B11DAA1F649F6627B00DA11D661F829F78
:101030002227B00DA11D621F739FB00DA11D621F5D
:10104000839FA00D611D221F749F3327A00D611D7A
:10105000231F849F600D211D822F762F6A2F11245C
:101060009F5750408AF0E1F088234AF0EE0FFF1FAF
:10107000BB1F661F771F881F91505040A9F79E3FE6
:10108000510570F05CCFA6CF5F3FECF3983EDCF3E8
:10109000869577956795B795F795E7959F5FC1F723
:1010A000FE2B880F911D9695879597F9089523DF5C
:1010B000880B990B0895A1E21A2EAA1BBB1BFD01F8
:1010C0000DC0AA1FBB1FEE1FFF1FA217B307E40727
:1010D000F50720F0A21BB30BE40BF50B661F771F7F
:1010E000881F991F1A9469F760957095809590955F
:1010F0009B01AC01BD01CF0108950E948E08A59F00
:10110000900DB49F900DA49F800D911D1124089502
:10111000EE0FFF1F0590F491E02D0994A29FB001FE
:10112000B39FC001A39F700D811D1124911DB29F1B
:0E113000700D811D1124911D0895F894FFCFBC
:10113E000000DC01800056313A0056323A00565417
:10114E003A00464C3A00000000007801F402FA0022
:10115E001301050156016E616E00696E66006F76B1
:04116E0066002E00E9
:00000001FF
