:100000000C9464000C948C000C948C000C948C0068
:100010000C948C000C948C000C948C000C948C0030
:100020000C948C000C948C000C948C000C948C0020
:100030000C948C000C948C000C948C000C948C0010
:100040000C94F60A0C948C000C948C070C94BE074C
:100050000C948C000C948C000C948C000C948C00F0
:100060000C948C000C948C0000000008000201002D
:100070000003040700000000000000000102040863
:100080001020408001020408102001020408102002
:10009000040404040404040402020202020203032E
:1000A00003030303000000002300260029000000D2
:1000B0000000250028002B0000000000240027007D
:1000C0002A00D3010005EE0711241FBECFEFD8E0B0
:1000D000DEBFCDBF11E0A0E0B1E0E0E9FDE102C08C
:1000E00005900D92AC34B107D9F722E0ACE4B1E051
:1000F00001C01D92A131B207E1F710E0C8ECD0E0D9
:1001000004C02297FE010E943F0CC23CD107C9F7F0
:100110000E9432080C94C60E0C940000AF92BF925D
:10012000CF92DF92EF92FF920F931F93CF93DF93C3
:100130001F92CDB7DEB76C01E62EF12C5701AA0C49
:10014000BB1CAC0CBD1CF5010285138517FD09C055
:10015000B801842F49830E94270501501109498164
:10016000F5CF60E0842F0E94E80581E090E0F50182
:1001700093878287F601EE0DFF1D80830F90DF913C
:10018000CF911F910F91FF90EF90DF90CF90BF9094
:10019000AF9008953F924F925F926F927F928F92AD
:1001A0009F92AF92BF92CF92DF92EF92FF920F9306
:1001B0001F93CF93DF933C01362E862E912C44E083
:1001C000461778F0F401E05EFE4FC081DD27C7FDE1
:1001D000D095F401E55EFE4F8081992787FD9095CB
:1001E00004C0CFEFDFEF8FEF9FEF2301480C591CC6
:1001F000F20145814423A9F060E08C2FDF91CF917B
:100200001F910F91FF90EF90DF90CF90BF90AF9034
:100210009F908F907F906F905F904F903F900C9445
:10022000E805F2E0F315C8F021E0321690F50E94DF
:100230000A05BC01882777FD8095982F1F921F9291
:100240001F922FEF2F93A12CB12C650114EFE12EFB
:10025000FF24F39400E010E048C043E0341681F13D
:10026000E4E03E124CC00E940A05BC01882777FDDD
:100270008095982F1F921F921F922FEF2F93A12CE2
:10028000B12C650110E9E12EFF24F39400E010E0A9
:100290002CC00E940A05BC01882777FD8095982F05
:1002A0001F921F921F922FEF2F9351E1A52EB12C79
:1002B000C12CD12C18ECE12EF12C00E010E015C07F
:1002C0000E940A05BC01882777FD8095982F1F9210
:1002D0001F921F922FEF2F93A12CB12C65011CE2CE
:1002E000E12EFF24F39400E010E020E030E0A901CB
:1002F0000E94D1099B010F900F900F900F90C901A0
:100300002F3F310519F014F08FEF90E0F401EE0F5C
:10031000FF1FE60DF71D228533852817390789F160
:100320008431910594F0821793071CF42150310910
:1003300002C02F5F3F4F33872287628573858C2FE2
:100340000E942705F20110821CC00F97D4F4F2011D
:100350008081811116C0AE01632DC301DF91CF9161
:100360001F910F91FF90EF90DF90CF90BF90AF90D3
:100370009F908F907F906F905F904F903F900C94E4
:100380008E00DF91CF911F910F91FF90EF90DF9042
:10039000CF90BF90AF909F908F907F906F905F9025
:1003A0004F903F90089585E0ECE4F1E0DF01982F55
:1003B0001D929A95E9F7E1E5F1E0DF011D928A953A
:1003C000E9F78AE0EBE0F1E0A6E5B1E001900D92FB
:1003D0008A95E1F7089561E08AE20E94AF0561E045
:1003E00088E20E94AF0561E086E20E94AF0561E00D
:1003F0008EE20E94AF0561E080E30E94AF0561E0FC
:1004000082E30E94AF0561E084E30E94AF0561E0F2
:1004100080E10E94AF0561E081E10E94AF0561E0EB
:1004200082E10E94AF0561E083E10E94AF0561E0D7
:1004300084E10E94AF0561E08DE20E94AF0560E0BB
:1004400081E10E94AF0561E081E20E94AF0560E0BA
:1004500080E10E94AF0561E083E30E94AF0560E0A8
:100460008EE00E94AF0561E085E20E94AF0560E08A
:100470008FE00E94AF0561E088E10E94AF0560E077
:1004800082E10E94AF0561E084E20E94AF0561E075
:100490008CE20E94AF0561E082E20E94AF0561E05C
:1004A00080E20E94AF0561E08EE10E94AF0561E04D
:1004B0008CE10E94AF0561E08AE10E94AF0561E036
:1004C00086E10E94AF0561E085E10E94AF0561E031
:1004D00088E10E94AF0560E082E10E94AF0561E023
:1004E0008EE20E94E80561E080E30E94E80561E099
:1004F00082E30E94E80561E084E30E94E80561E090
:1005000080E10E94E80561E081E10E94E80561E088
:1005100082E10E94E80561E083E10E94E80561E074
:1005200084E10E94E80526E040E855E260E070E0E2
:1005300087E691E00C942A078F929F92AF92BF9228
:10054000CF92DF92EF92FF92CF93DF9300D000D053
:1005500000D0CDB7DEB760E08CE491E00E94CA0025
:1005600061E08CE491E00E94CA0064E08CE491E0D8
:100570000E94CA0062E08CE491E00E94CA0063E03D
:100580008CE491E00E94CA0081E691E00E94DC03C5
:1005900087E691E00E944706892B09F4E4C04DE00C
:1005A00067E671E0CE0101960E94A909CE0101968D
:1005B0000E94EB0A6B017C01CE0101960E94180A91
:1005C0002AE030E0B701A60187E691E00E946909C0
:1005D00068E271E0CE0101960E94860AC0FE11C059
:1005E00081E691E00E94CC03BC016B5D7E4FCE01A1
:1005F00001960E94C80A69E271E0CE0101960E944C
:10060000C80AC1FE12C081E691E00E94D0035C01DD
:100610006BE271E087E691E00E947F084AE050E0DB
:10062000B50187E691E00E945109C2FE12C081E641
:1006300091E00E94D4035C016FE271E087E691E0F3
:100640000E947F084AE050E0B50187E691E00E94F1
:100650005109C3FE16C081E691E00E94D8034B0108
:100660005C0163E371E087E691E00E947F08C501C9
:10067000B4010E94870B4AE050E087E691E00E94B7
:100680005109D6FE38C067E371E087E691E00E9429
:100690009C0860915601709157014AE050E087E64E
:1006A00091E00E94510960915801709159014AE00E
:1006B00050E087E691E00E94510960915A017091E3
:1006C0005B014AE050E087E691E00E9451096091A9
:1006D0005E0170915F014AE050E087E691E00E9480
:1006E000510960915C0170915D014AE050E087E63C
:1006F00091E00E945109D701C60125E0B695A79562
:10070000979587952A95D1F7817080935101D701EC
:10071000C60136E0B695A795979587953A95D1F796
:10072000817080935201D701C60144E0B695A79528
:10073000979587954A95D1F78170809353018D2DB8
:10074000817080935501D701C60157E0B695A795F2
:10075000979587955A95D1F7817080935401CE0172
:1007600001960E94180A26960FB6F894DEBF0FBEB7
:10077000CDBFDF91CF91FF90EF90DF90CF90BF90F2
:10078000AF909F908F90089580E691E00C94EB01DC
:1007900080E691E00C949C02FC0180819181089597
:1007A000FC01828193810895FC01848195810895E3
:1007B00060E070E0CB0108952F923F924F925F92DC
:1007C0006F927F928F929F92AF92BF92CF92DF9261
:1007D000EF92FF920F931F93CF93DF932C0181E051
:1007E0000E940A054C0182E00E940A05EC0183E0A8
:1007F0000E940A053C0187E6881681E0980614F0FD
:1008000061E006C092E4891691E0990624F460E064
:100810008AE20E94E805C43BD10554F061E088E219
:100820000E94E805C83DD10554F060E08AE205C0A9
:10083000C137D10524F460E088E20E94E805ECE9C4
:100840006E1671043CF060E086E20E94E80560E00C
:1008500088E20CC0F8E76F16710454F488E20E9435
:100860001E0661E0892B09F060E086E20E94E8053F
:100870001F921F9283E0382E3F9282E58F9394EB74
:10088000A92EB12CC12CD12C1EEBE12EFF24F39408
:1008900000E010E023E231E040E050E0B4018827BE
:1008A00077FD8095982F0E94D109F20171836083B2
:1008B0001F921F923F9230E2232E2F9246E9A42EE0
:1008C000B12CC12CD12C1DECE12EF12C00E010E05C
:1008D0002EE530E040E050E0BE01882777FD8095AE
:1008E000982F0E94D109F201738362831F921F9295
:1008F0003F922F9264E6A62EB12CC12CD12C10EA87
:10090000E12EF12C00E010E02EE230E040E050E07B
:10091000B301882777FD8095982F0E94D109F201B5
:100920007583648361E0F7E96F1671040CF460E08D
:100930008AE10E94E80561E0C301815891090A97A4
:1009400008F060E086E10E94E80561E087E768164C
:1009500071040CF060E085E10E94E80561E0C33BB2
:10096000D1050CF460E080E20E94E80561E0CE0170
:1009700089589109819708F060E08EE10E94E805AE
:1009800061E0C238D1050CF060E08CE10E94E8051E
:1009900061E090E7891691E099060CF460E084E24A
:1009A0000E94E80561E0C40185549140489708F031
:1009B00060E08CE20E94E805EDB7FEB73C960FB60A
:1009C000F894FEBF0FBEEDBF61E0F7E38F16F1E0D4
:1009D0009F060CF060E082E2DF91CF911F910F91B2
:1009E000FF90EF90DF90CF90BF90AF909F908F904F
:1009F0007F906F905F904F903F902F900C94E80500
:100A000086E0E5E1F1E0A1E6B1E001900D928A9582
:100A1000E1F708958E3008F08E50877020910A011A
:100A200090E4299F90011124822B80937C00809177
:100A30007A00806480937A0080917A0086FDFCCFF2
:100A4000809178002091790090E0922B08951F9377
:100A5000CF93DF93182FEB0161E00E94AF05209741
:100A600011F460E004C0CF3FD10539F461E0812F7B
:100A7000DF91CF911F910C94E805E12FF0E0E85948
:100A8000FF4FE491E330F9F048F4E130B9F0E2309F
:100A9000A1F584B5806284BDC8BD34C0E730E9F0FB
:100AA000E83019F1E43049F580918000806280934C
:100AB0008000D0938B00C0938A0024C084B58068E6
:100AC00084BDC7BD1FC08091800080688093800076
:100AD000D0938900C093880015C08091B0008068D1
:100AE0008093B000C093B3000DC08091B0008062CD
:100AF0008093B000C093B40005C0C038D1050CF09D
:100B0000B5CFAFCFDF91CF911F910895833081F0A2
:100B100028F4813099F08230A1F008958730A9F04F
:100B20008830B9F08430D1F4809180008F7D03C08B
:100B3000809180008F7780938000089584B58F77AF
:100B400002C084B58F7D84BD08958091B0008F77F9
:100B500003C08091B0008F7D8093B0000895CF9343
:100B6000DF9390E0FC01E458FF4F2491FC01E05733
:100B7000FF4F8491882349F190E0880F991FFC0171
:100B8000E854FF4FA591B49182559F4FFC01C59148
:100B9000D4919FB7611108C0F8948C91209582235D
:100BA0008C93888182230AC0623051F4F8948C912E
:100BB000322F309583238C938881822B888304C0C5
:100BC000F8948C91822B8C939FBFDF91CF910895E5
:100BD0000F931F93CF93DF931F92CDB7DEB7282FCC
:100BE00030E0F901E859FF4F8491F901E458FF4FD3
:100BF0001491F901E057FF4F04910023C9F08823B5
:100C000021F069830E9486056981E02FF0E0EE0FF4
:100C1000FF1FE255FF4FA591B4919FB7F8948C91B7
:100C2000611103C01095812301C0812B8C939FBF5C
:100C30000F90DF91CF911F910F910895CF93DF9384
:100C4000282F30E0F901E859FF4F8491F901E45869
:100C5000FF4FD491F901E057FF4FC491CC2391F09D
:100C600081110E948605EC2FF0E0EE0FFF1FEC557E
:100C7000FF4FA591B4912C912D2381E090E021F4B8
:100C800080E002C080E090E0DF91CF910895FC0108
:100C9000818D228D90E0805C9F4F821B91098F7324
:100CA00099270895FC01918D828D981731F0828DDE
:100CB000E80FF11D858D90E008958FEF9FEF089567
:100CC000FC01918D828D981761F0828DDF01A80F54
:100CD000B11D5D968C91928D9F5F9F73928F90E076
:100CE00008958FEF9FEF089584EE97E0892B49F0E8
:100CF00080E090E0892B29F00E94E40781110C9498
:100D000000000895FC01848DDF01A80FB11DA35AD6
:100D1000BF4F2C91848D90E001968F739927848F1B
:100D2000A689B7892C93A089B1898C9180648C9312
:100D3000938D848D981306C00288F389E02D8081FD
:100D40008F7D80830895CF93DF93EC01888D882376
:100D5000C9F0EA89FB89808185FD05C0A889B98928
:100D60008C9186FD0FC00FB607FCF5CF808185FF03
:100D7000F2CFA889B9898C9185FFEDCFCE010E9471
:100D80008206E7CFDF91CF910895CF92DF92FF9255
:100D90000F931F93CF93DF931F92CDB7DEB76C01F4
:100DA000DC015B969C915B975C968C915C979813A9
:100DB00007C05096ED91FC915197808185FD32C01E
:100DC000F601038D10E00F5F1F4F0F731127F02EF8
:100DD000F601848DF81211C00FB607FCF9CFD601C9
:100DE0005096ED91FC915197808185FFF1CFC6011E
:100DF00069830E9482066981EBCF838DE80FF11D24
:100E0000E35AFF4F6083D6015B960C935B97529633
:100E1000ED91FC91539780818062808381E05896A8
:100E20008C930DC0D6015696ED91FC915797608337
:100E30005096ED91FC91519780818064808381E090
:100E400090E00F90DF91CF911F910F91FF90DF9075
:100E5000CF900895BF92CF92DF92EF92FF92CF93FF
:100E6000DF93EC016A017B01B22EE889F98982E007
:100E70008083411581EE580761057105A1F060E09E
:100E800079E08DE390E0A70196010E94F10B2150DB
:100E900031094109510956954795379527952115EF
:100EA00080E1380798F0E889F989108260E874E8F1
:100EB0008EE190E0A70196010E94F10B21503109CB
:100EC000410951095695479537952795EC85FD853C
:100ED0003083EE85FF852083188EEC89FD89B082F2
:100EE000EA89FB89808180618083EA89FB8980812E
:100EF00088608083EA89FB89808180688083EA89B1
:100F0000FB8980818F7D8083DF91CF91FF90EF906F
:100F1000DF90CF90BF9008951F920F920FB60F925F
:100F200011242F938F939F93EF93FF93E091770179
:100F3000F09178018081E0917D01F0917E0182FD48
:100F400012C09081809180018F5F8F732091810109
:100F5000821751F0E0918001F0E0E959FE4F958F42
:100F60008093800101C08081FF91EF919F918F91CB
:100F70002F910F900FBE0F901F9018951F920F92F8
:100F80000FB60F9211242F933F934F935F936F935C
:100F90007F938F939F93AF93BF93EF93FF9387E6D6
:100FA00091E00E948206FF91EF91BF91AF919F91D6
:100FB0008F917F916F915F914F913F912F910F9002
:100FC0000FBE0F901F90189587E691E00E9447068C
:100FD00021E0892B09F420E0822F089510926A0104
:100FE0001092690188EE93E0A0E0B0E080936B017D
:100FF00090936C01A0936D01B0936E018FE391E02B
:10100000909368018093670185EC90E09093740160
:101010008093730184EC90E0909376018093750146
:1010200080EC90E0909378018093770181EC90E0E0
:1010300090937A018093790182EC90E090937C0107
:1010400080937B0186EC90E090937E0180937D01FC
:1010500010928001109281011092820110928301FE
:10106000089508950E944C0B0E9431080E94C40309
:10107000C4E7D6E00E94C8032097E1F30E947406FB
:10108000F9CFCF92DF92EF92FF920F931F93CF93FE
:10109000DF936C017A01EB01E60EF71E00E010E031
:1010A000CE15DF0561F06991D601ED91FC910190BB
:1010B000F081E02DC6010995080F191FF1CFC80175
:1010C000DF91CF911F910F91FF90EF90DF90CF9024
:1010D00008956115710581F0DB010D900020E9F79D
:1010E000AD0141505109461B570BDC01ED91FC91BC
:1010F0000280F381E02D099480E090E008950C9443
:101100006908DC01ED91FC910190F081E02D0994DA
:101110000F931F93CF93DF93EC016DE00E94810842
:101120008C016AE0CE010E948108800F911FDF913F
:10113000CF911F910F9108950F931F93CF93DF933A
:10114000EC010E9469088C01CE010E948808800F82
:10115000911FDF91CF911F910F9108958F929F92D0
:10116000AF92BF92CF92DF92EF92FF920F931F93B5
:10117000CF93DF93CDB7DEB7A1970FB6F894DEBF5C
:101180000FBECDBF7C01C42EE52FCB01D22E19A2FC
:1011900021E02D1510F02AE0D22E8E010F5D1F4F99
:1011A0008D2C912CA12CB12C6C2D7E2FA50194019E
:1011B0000E94F10B8C2DD29E80191124015011092F
:1011C0008A3014F4805D01C0895CF80180832115A8
:1011D00031054105510521F0C22EE32FCA01E4CFAC
:1011E000B801C7010E946908A1960FB6F894DEBF46
:1011F0000FBECDBFDF91CF911F910F91FF90EF9068
:10120000DF90CF90BF90AF909F908F900895CF9236
:10121000DF92EF92FF920F931F93CF93DF93EC0136
:101220006A017B012115310579F4E881F98101908A
:10123000F081E02D642FDF91CF911F910F91FF90EE
:10124000EF90DF90CF9009942A303105E9F477FFD1
:101250001AC06DE20E9481088C0144275527BA010B
:101260004C195D096E097F092AE0CE010E94AE0883
:10127000800F911FDF91CF911F910F91FF90EF9001
:10128000DF90CF9008952AE0B701A601CE01DF914B
:10129000CF911F910F91FF90EF90DF90CF900C9422
:1012A000AE080F931F93CF93DF93EC019A01AB012C
:1012B000662757FD6095762F0E9407098C01CE01A5
:1012C0000E948808800F911FDF91CF911F910F918D
:1012D00008950F931F93CF93DF93EC010E940709AA
:1012E0008C01CE010E948808800F911FDF91CF9161
:1012F0001F910F9108950F931F93CF93DF93EC01EC
:101300000E94400B688779878A879B87E881F981EB
:101310000680F781E02DCE01099597FF15C00E9448
:10132000400B088519852A853B85601B710B820B54
:10133000930B0C811D812E813F81601771078207FD
:10134000930720F38FEF9FEFDF91CF911F910F91C4
:101350000895EF92FF920F931F93CF93DF93EC01C9
:101360008B01E42E68E271E00E94860AC8010E94A7
:101370007B09FF24E7FCF09497FD0BC08E159F05B9
:1013800041F0682FCE010E94D80AC8010E947B0953
:10139000F3CFCE01DF91CF911F910F91FF90EF908E
:1013A00008954F925F926F927F92AF92BF92CF92C9
:1013B000DF92EF92FF920F931F93CF93DF93CDB7FE
:1013C000DEB729013A01621B730B840B950B298947
:1013D0003A894B895C892A193B094C095D09298B9B
:1013E0003A8B4B8B5C8B9B01AC0169897A898B8929
:1013F0009C890E94E10BE418F50806091709A80169
:1014000097010E94130C2A0D3B1D4C1D5D1DCA0146
:10141000B901DF91CF911F910F91FF90EF90DF9075
:10142000CF90BF90AF907F906F905F904F90089556
:10143000FC01808191810C94EA0CCF93DF93EC0145
:1014400088819981009711F00E94EA0C1982188214
:101450001D821C821B821A82DF91CF9108950F9307
:101460001F93CF93DF93EC018B016F5F7F4F8881D8
:1014700099810E94790D009731F0998388831B83AD
:101480000A8381E001C080E0DF91CF911F910F912D
:101490000895CF93DF93EC0188819981892B29F0FE
:1014A0008A819B818617970760F4CE010E942F0ADC
:1014B000882341F08C819D81892B19F4E881F98181
:1014C000108281E0DF91CF910895EF92FF920F9308
:1014D0001F93CF93DF93EC017B018A01BA010E9435
:1014E000490A811104C0CE010E941D0A07C01D8354
:1014F0000C83B701888199810E94730ECE01DF9120
:10150000CF911F910F91FF90EF900895FC011182F0
:10151000108213821282158214826115710559F0AE
:10152000FB0101900020E9F7AF0141505109461B32
:10153000570B0C94650A0895EF92FF920F931F9337
:10154000CF93DF93EC017B010C811D816115710547
:1015500011F480E016C04115510591F0040F151FDC
:10156000B8010E94490A8823A1F3288139818C811E
:101570009D81B701820F931F0E94730E1D830C8300
:1015800081E0DF91CF911F910F91FF90EF9008952F
:101590006115710559F0FB0101900020E9F7AF01D9
:1015A00041505109461B570B0C949C0A80E008954A
:1015B000CF93DF9300D0CDB7DEB769831A8241E0C5
:1015C00050E0BE016F5F7F4F0E949C0A0F900F900A
:1015D000DF91CF910895FC0180819181009711F0F6
:1015E0000C94430E60E070E0CB0108951F920F92BF
:1015F0000FB60F9211242F933F938F939F93AF9326
:10160000BF938091050290910602A0910702B091CC
:1016100008023091040223E0230F2D3720F40196B5
:10162000A11DB11D05C026E8230F0296A11DB11D05
:10163000209304028093050290930602A093070270
:10164000B09308028091090290910A02A0910B02C6
:10165000B0910C020196A11DB11D809309029093D7
:101660000A02A0930B02B0930C02BF91AF919F911D
:101670008F913F912F910F900FBE0F901F90189553
:101680002FB7F894609105027091060280910702CD
:10169000909108022FBF0895789484B5826084BD2C
:1016A00084B5816084BD85B5826085BD85B5816066
:1016B00085BDEEE6F0E0808181608083E1E8F0E0C6
:1016C0001082808182608083808181608083E0E8F5
:1016D000F0E0808181608083E1EBF0E080818460D4
:1016E0008083E0EBF0E0808181608083EAE7F0E0D6
:1016F000808184608083808182608083808181603A
:1017000080838081806880831092C100089504D016
:101710006894B11150C0089533D088F09F5790F06D
:10172000B92F9927B751A0F0D1F0660F771F881F06
:10173000991F1AF0BA95C9F712C0B13081F03AD0AA
:10174000B1E0089537C0672F782F8827B85F39F048
:10175000B93FCCF3869577956795B395D9F73EF465
:1017600090958095709561957F4F8F4F9F4F08950D
:1017700057FD9058440F551F59F05F3F71F0479542
:10178000880F97FB991F61F09F3F79F08795089527
:10179000121613061406551FF2CF4695F1DF08C046
:1017A000161617061806991FF1CF86957105610563
:1017B00008940895E894BB2766277727CB0197F90B
:1017C0000895DB018F939F930E94320CBF91AF91DC
:1017D000A29F800D911DA39F900DB29F900D11248B
:1017E0000895A1E21A2EAA1BBB1BFD010DC0AA1F62
:1017F000BB1FEE1FFF1FA217B307E407F50720F07A
:10180000A21BB30BE40BF50B661F771F881F991FF4
:101810001A9469F760957095809590959B01AC013D
:10182000BD01CF010895052E97FB1EF400940E9480
:101830002A0C57FD07D00E94F10B07FC03D04EF491
:101840000C942A0C50954095309521953F4F4F4F61
:101850005F4F089590958095709561957F4F8F4F5C
:101860009F4F08950E94430CA59F900DB49F900D2B
:10187000A49F800D911D11240895EE0FFF1F059068
:10188000F491E02D0994A29FB001B39FC001A39FE2
:10189000700D811D1124911DB29F700D811D1124A9
:1018A000911D0895CF93DF938230910510F482E06B
:1018B00090E0E0910F02F091100220E030E0A0E013
:1018C000B0E0309739F14081518148175907B8F09D
:1018D0004817590771F482819381109729F0139664
:1018E0009C938E9312972CC09093100280930F02BA
:1018F00027C02115310531F04217530718F0A9010F
:10190000DB0101C0EF019A01BD01DF010280F3811B
:10191000E02DD7CF21153105F9F0281B390B2430E4
:10192000310580F48A819B816115710521F0FB01ED
:101930009383828304C09093100280930F02FE0170
:10194000329644C0FE01E20FF31F8193919322501F
:101950003109398328833AC020910D0230910E025B
:10196000232B41F4209102013091030130930E02A8
:1019700020930D02209100013091010121153105C4
:1019800041F42DB73EB74091040150910501241B4D
:10199000350BE0910D02F0910E02E217F307A0F46F
:1019A0002E1B3F0B2817390778F0AC014E5F5F4FB5
:1019B0002417350748F04E0F5F1F50930E024093D7
:1019C0000D028193919302C0E0E0F0E0CF01DF913E
:1019D000CF910895CF93DF93009709F487C0FC015E
:1019E000329713821282C0910F02D0911002209779
:1019F00081F420813181280F391F80910D0290914F
:101A00000E028217930779F5F0930E02E0930D0210
:101A10006DC0DE0120E030E0AE17BF0750F4129633
:101A20004D915C9113979D014115510509F1DA0122
:101A3000F3CFB383A28340815181840F951F8A170E
:101A40009B0771F48D919C911197840F951F0296BD
:101A50009183808312968D919C91139793838283B7
:101A60002115310529F4F0931002E0930F023EC0D6
:101A7000D9011396FC93EE9312974D915D91A40FAB
:101A8000B51FEA17FB0779F480819181840F951FB8
:101A90000296D90111969C938E938281938113961D
:101AA0009C938E931297E0E0F0E08A819B810097EF
:101AB00019F0FE01EC01F9CFCE010296288139819F
:101AC000820F931F20910D0230910E0228173907C3
:101AD00069F4309729F41092100210920F0202C09C
:101AE00013821282D0930E02C0930D02DF91CF9128
:101AF0000895A0E0B0E0EFE7FDE00C94930EEC0158
:101B0000CB01209719F40E94520CB8C0FE01E60FD9
:101B1000F71F9E0122503109E217F30708F4ACC009
:101B2000D9010D911C91119706171707B8F00530D0
:101B3000110508F49FC0A8014450510946175707E2
:101B400008F498C002501109061B170B019311935A
:101B50006D937C93CF010E94EA0C8CC05B01A01AAC
:101B6000B10A4E01800E911EA0910F02B091100299
:101B7000612C712C60E070E0109709F449C0A81541
:101B8000B905C9F5ED90FC901197670142E0C40ECC
:101B9000D11CCA14DB0478F147018A189B08640140
:101BA00042E0C40ED11C1296BC9012971396AC91D1
:101BB000B5E0CB16D10440F0B282A383918280823B
:101BC000D9018D939C9309C00E5F1F4F0E0D1F1DF1
:101BD000F90111830083EB2DFA2F6115710531F0A6
:101BE000DB011396FC93EE93129744C0F09310021E
:101BF000E0930F023FC06D917C91119766167706B6
:101C000008F43B01BD0112960D90BC91A02DB4CFFC
:101C100060910D0270910E0268157905E9F468165D
:101C20007906D0F440910001509101014115510510
:101C300041F44DB75EB76091040170910501461BF8
:101C4000570BE417F507C0F4F0930E02E0930D0272
:101C5000F901918380830EC00E94520C7C01009791
:101C600059F0A801BE010E946A0ECE010E94EA0C42
:101C7000C70104C0CE0102C080E090E0CDB7DEB75E
:101C8000EEE00C94AF0E1F93FC0199278827BC014E
:101C9000E89411911032E9F3193010F01E30C8F3B6
:101CA0001B3251F01D3249F4689406C00E947A0E2E
:101CB000610F711D811D911D119110531A30B0F3E8
:101CC0003EF490958095709561957F4F8F4F9F4F13
:101CD0001F910895FB01DC0102C001900D9241505B
:101CE0005040D8F70895FB01DC0101900D920020CF
:101CF000E1F70895592F482F372F262F660F771FAA
:101D0000881F991F660F771F881F991F620F731F07
:101D1000841F951F660F771F881F991F08952F92A4
:101D20003F924F925F926F927F928F929F92AF926B
:101D3000BF92CF92DF92EF92FF920F931F93CF93B8
:101D4000DF93CDB7DEB7CA1BDB0B0FB6F894DEBF4F
:101D50000FBECDBF09942A88398848885F846E8475
:101D60007D848C849B84AA84B984C884DF80EE80BF
:101D7000FD800C811B81AA81B981CE0FD11D0FB6C8
:101D8000F894DEBF0FBECDBFED010895F894FFCFEC
:101D900000001102800001000000010100010001AB
:101DA0000001000100B4009600640011100E120F33
:101DB0002D2133182556313A003B0056323A005651
:101DC000543A00464C3A0056413A0000000000C523
:0C1DD000064108470660065206A3060004
:00000001FF
