:100000000C945E000C9486000C9486000C94860080
:100010000C9486000C9486000C9486000C94860048
:100020000C9486000C9486000C9486000C94860038
:100030000C9486000C9486000C9486000C94860028
:100040000C943B020C9486000C9470050C94A20551
:100050000C9486000C9486000C9486000C94860008
:100060000C9486000C948600000000080002010039
:100070000003040700000000000000000102040863
:100080001020408001020408102001020408102002
:10009000040404040404040402020202020203032E
:1000A0000303030300000000250028002B000000CC
:1000B0000000240027002A006D01D20511241FBE74
:1000C000CFEFD8E0DEBFCDBF11E0A0E0B1E0E0ECC3
:1000D000F7E102C005900D92A434B107D9F721E0F1
:1000E000A4E4B1E001C01D92AB3FB207E1F710E01C
:1000F000CCEBD0E004C02297FE010E94CB0BC83BA2
:10010000D107C9F70E9416060C94DE0B0C94000070
:10011000AF92BF92CF92DF92EF92FF920F931F9315
:10012000CF93DF931F92CDB7DEB76C01E62EF12C93
:100130005701AA0CBB1CAC0CBD1CF5010081118140
:1001400017FD0FC0B801842F49830E94340368E76C
:1001500070E080E090E00E94B402015011094981F2
:10016000EFCF60E070E0842F0E943403F50111822C
:100170001082F601EE0DFF1D81E082870F90DF9166
:10018000CF911F910F91FF90EF90DF90CF90BF9094
:10019000AF9008955F926F927F928F929F92AF92ED
:1001A000BF92CF92DF92EF92FF920F931F93CF9364
:1001B000DF934C01562EC62FD0E084E0861778F0EE
:1001C000FE01E05FFE4F6080772467FC7094FE01C3
:1001D000E55FFE4F8081992787FD909505C06624D5
:1001E0006A94762C8FEF9FEF0E941703BC0188273B
:1001F00077FD8095982F1F921F921F9228EC2F93C6
:10020000A12CB12C6501EE24EA9413E0F12E00E05C
:1002100010E020E030E0A9010E9406098E01000FE5
:10022000111F080D191DF801808191810F900F9009
:100230000F900F908617970729F16931710524F106
:100240006817790714F4019702C00196F8019183A9
:1002500080836AEF70E080E090E00E94B402F801D1
:10026000608171814AE050E08EE591E00E9435079F
:10027000F80160817181862D0E943403C80DD91D5B
:100280001A861BC04997CCF4C80DD91D8A858111E7
:1002900014C0A301652DC401DF91CF911F910F916F
:1002A000FF90EF90DF90CF90BF90AF909F908F9096
:1002B0007F906F905F900C948800DF91CF911F9199
:1002C0000F91FF90EF90DF90CF90BF90AF909F90F5
:1002D0008F907F906F905F900895E4E4F1E08AE062
:1002E000DF011D928A95E9F785E0EEE4F1E0DF0198
:1002F0001D928A95E9F7089526E040EC52E160E00E
:1003000070E08EE591E00E940E0561E08AE00E94B7
:10031000BC0360E083E10C94BC0360E084E491E002
:100320000C94CA008F929F92AF92BF92CF92DF92AD
:10033000EF92FF928EE591E00E9403096B017C0130
:10034000CB0181709927892BA1F084E591E00E946F
:1003500028024B015C0165E171E08EE591E00E94AD
:10036000800622E030E0B501A4018EE591E00E9414
:100370003808C60182709927892BA1F084E591E0A5
:100380000E942D024B015C0169E171E08EE591E074
:100390000E94630622E030E0B501A4018EE591E001
:1003A0000E943808C60184709927892BA1F084E542
:1003B00091E00E9432024B015C016DE171E08EE53B
:1003C00091E00E94630622E030E0B501A4018EE5D1
:1003D00091E00E94380888E0C822DD24CD28E1F0B1
:1003E00084E591E00E9437026B017C0161E271E0DB
:1003F0008EE591E00E94630622E030E0B701A6019D
:100400008EE591E0FF90EF90DF90CF90BF90AF909E
:100410009F908F900C943808FF90EF90DF90CF90D2
:10042000BF90AF909F908F90089583E591E00C94DA
:100430007C0183E591E00C948D018EE591E00E94B2
:100440002B04892B21F083E591E00C94920108950F
:1004500060E070E088E492E4089560E070E088E78E
:1004600091E408956DEC7CEC87E992E4089560E0F6
:1004700070E0CB0108951F920F920FB60F921124D6
:100480002F933F938F939F93AF93BF938091560188
:1004900090915701A0915801B091590130915501A7
:1004A00023E0230F2D3720F40196A11DB11D05C0B7
:1004B00026E8230F0296A11DB11D209355018093BC
:1004C000560190935701A0935801B0935901809120
:1004D0005A0190915B01A0915C01B0915D01019680
:1004E000A11DB11D80935A0190935B01A0935C0103
:1004F000B0935D01BF91AF919F918F913F912F91EB
:100500000F900FBE0F901F9018952FB7F894609121
:1005100056017091570180915801909159012FBF58
:1005200008953FB7F89480915A0190915B01A09192
:100530005C01B0915D0126B5A89B05C02F3F19F065
:100540000196A11DB11D3FBF6627782F892F9A2FD5
:10055000620F711D811D911D42E0660F771F881F7C
:10056000991F4A95D1F70895CF92DF92EF92FF92AB
:10057000CF93DF936B017C010E949102EB01C114C8
:10058000D104E104F10489F00E944D090E94910216
:100590006C1B7D0B683E734090F381E0C81AD10854
:1005A000E108F108C851DC4FEACFDF91CF91FF900D
:1005B000EF90DF90CF900895789484B5826084BDE9
:1005C00084B5816084BD85B5826085BD85B5816057
:1005D00085BDEEE6F0E0808181608083E1E8F0E0B7
:1005E0001082808182608083808181608083E0E8E6
:1005F000F0E0808181608083E1EBF0E080818460C5
:100600008083E0EBF0E0808181608083EAE7F0E0C6
:10061000808184608083808182608083808181602A
:1006200080838081806880831092C10008958E301D
:1006300008F08E50877020910A0190E4299F900164
:100640001124822B80937C0080917A0080648093B7
:100650007A0080917A0086FDFCCF8091780020910D
:10066000790090E0922B08951F93CF93DF93182F7A
:10067000EB0161E00E94BC03209711F460E004C02C
:10068000CF3FD10539F461E0812FDF91CF911F91E8
:100690000C94F503E12FF0E0E859FF4FE491E330CB
:1006A000F9F048F4E130B9F0E230A1F584B58062A8
:1006B00084BDC8BD34C0E730E9F0E83019F1E4305A
:1006C00049F580918000806280938000D0938B00F8
:1006D000C0938A0024C084B5806884BDC7BD1FC094
:1006E00080918000806880938000D0938900C093BF
:1006F000880015C08091B00080688093B000C093DE
:10070000B3000DC08091B00080628093B000C093B0
:10071000B40005C0C038D1050CF0B5CFAFCFDF9124
:10072000CF911F910895833081F028F4813099F0A2
:100730008230A1F008958730A9F08830B9F0843074
:10074000D1F4809180008F7D03C0809180008F77ED
:1007500080938000089584B58F7702C084B58F7D23
:1007600084BD08958091B0008F7703C08091B00060
:100770008F7D8093B0000895CF93DF9390E0FC01CC
:10078000E458FF4F2491FC01E057FF4F84918823E8
:1007900049F190E0880F991FFC01E255FF4FA591A8
:1007A000B4918C559F4FFC01C591D4919FB76111B5
:1007B00008C0F8948C91209582238C9388818223A1
:1007C0000AC0623051F4F8948C91322F3095832313
:1007D0008C938881822B888304C0F8948C91822B1F
:1007E0008C939FBFDF91CF9108950F931F93CF9369
:1007F000DF931F92CDB7DEB7282F30E0F901E8591B
:10080000FF4F8491F901E458FF4F1491F901E0572B
:10081000FF4F04910023C9F0882321F069830E94CF
:1008200093036981E02FF0E0EE0FFF1FEC55FF4FBF
:10083000A591B4919FB7F8948C91611103C0109564
:10084000812301C0812B8C939FBF0F90DF91CF91AB
:100850001F910F910895FC01818D228D90E0805CA5
:100860009F4F821B91098F7399270895FC01918DE9
:10087000828D981731F0828DE80FF11D858D90E003
:1008800008958FEF9FEF0895FC01918D828D981749
:1008900061F0828DDF01A80FB11D5D968C91928D64
:1008A0009F5F9F73928F90E008958FEF9FEF089561
:1008B00088EC95E0892B49F08DE192E0892B29F0B5
:1008C0000E94C80581110C941D020895FC01848DBD
:1008D000DF01A80FB11DA35ABF4F2C91848D90E06A
:1008E00001968F739927848FA689B7892C93A08945
:1008F000B1898C9180648C93938D848D981306C0FC
:100900000288F389E02D80818F7D80830895CF93C5
:10091000DF93EC01888D8823C9F0EA89FB89808107
:1009200085FD05C0A889B9898C9186FD0FC00FB6D9
:1009300007FCF5CF808185FFF2CFA889B9898C911A
:1009400085FFEDCFCE010E946604E7CFDF91CF9106
:100950000895CF92DF92FF920F931F93CF93DF936F
:100960001F92CDB7DEB76C01DC015B969C915B9763
:100970005C968C915C97981307C05096ED91FC9112
:100980005197808185FD32C0F601038D10E00F5F25
:100990001F4F0F731127F02EF601848DF81211C02E
:1009A0000FB607FCF9CFD6015096ED91FC91519707
:1009B000808185FFF1CFC60169830E946604698149
:1009C000EBCF838DE80FF11DE35AFF4F6083D60113
:1009D0005B960C935B975296ED91FC9153978081B7
:1009E0008062808381E058968C930DC0D601569624
:1009F000ED91FC91579760835096ED91FC91519742
:100A000080818064808381E090E00F90DF91CF91BE
:100A10001F910F91FF90DF90CF900895BF92CF92DA
:100A2000DF92EF92FF92CF93DF93EC016A017B019B
:100A3000B22EE889F98982E08083411581EE58075A
:100A400061057105A1F060E079E08DE390E0A70118
:100A500096010E947D0B215031094109510956959B
:100A6000479537952795211580E1380798F0E88953
:100A7000F989108260E874E88EE190E0A7019601A0
:100A80000E947D0B21503109410951095695479526
:100A900037952795EC85FD853083EE85FF8520838E
:100AA000188EEC89FD89B082EA89FB89808180619A
:100AB0008083EA89FB89808188608083EA89FB8959
:100AC000808180688083EA89FB8980818F7D808333
:100AD000DF91CF91FF90EF90DF90CF90BF9008957E
:100AE0001F920F920FB60F9211242F938F939F9303
:100AF000EF93FF93E0916E01F0916F018081E0919F
:100B00007401F091750182FD12C09081809177018E
:100B10008F5F8F7320917801821751F0E0917701F8
:100B2000F0E0E25AFE4F958F8093770101C08081FB
:100B3000FF91EF919F918F912F910F900FBE0F908A
:100B40001F9018951F920F920FB60F9211242F939A
:100B50003F934F935F936F937F938F939F93AF9345
:100B6000BF93EF93FF938EE591E00E946604FF919F
:100B7000EF91BF91AF919F918F917F916F915F9115
:100B80004F913F912F910F900FBE0F901F9018958E
:100B90008EE591E00E942B0421E0892B09F420E0EE
:100BA000822F0895109261011092600188EE93E007
:100BB000A0E0B0E08093620190936301A093640190
:100BC000B093650189E291E090935F0180935E01AB
:100BD00085EC90E090936B0180936A0184EC90E047
:100BE00090936D0180936C0180EC90E090936F0185
:100BF00080936E0181EC90E090937101809370017D
:100C000082EC90E0909373018093720186EC90E007
:100C1000909375018093740110927701109278017E
:100C20001092790110927A01089508950E94DC02D1
:100C30000E9415060E941502C8E5D4E00E94190220
:100C40002097E1F30E945804F9CFCF92DF92EF9200
:100C5000FF920F931F93CF93DF936C017A01EB0107
:100C6000E60EF71E00E010E0CE15DF0561F0699199
:100C7000D601ED91FC910190F081E02DC60109951E
:100C8000080F191FF1CFC801DF91CF911F910F916C
:100C9000FF90EF90DF90CF9008956115710581F07E
:100CA000DB010D900020E9F7AD0141505109461BD1
:100CB000570BDC01ED91FC910280F381E02D09944A
:100CC00080E090E008950C944D06DC01ED91FC91DC
:100CD0000190F081E02D09940F931F93CF93DF9340
:100CE000EC016DE00E9465068C016AE0CE010E9475
:100CF0006506800F911FDF91CF911F910F9108958D
:100D00000F931F93CF93DF93EC010E944D068C014C
:100D1000CE010E946C06800F911FDF91CF911F9131
:100D20000F9108958F929F92AF92BF92CF92DF92D0
:100D3000EF92FF920F931F93CF93DF93CDB7DEB760
:100D4000A1970FB6F894DEBF0FBECDBF7C01C42EB5
:100D5000E52FCB01D22E19A221E02D1510F02AE0AB
:100D6000D22E8E010F5D1F4F8D2C912CA12CB12CFA
:100D70006C2D7E2FA50194010E947D0B8C2DD29E9F
:100D800080191124015011098A3014F4805D01C0CA
:100D9000895CF8018083211531054105510521F059
:100DA000C22EE32FCA01E4CFB801C7010E944D064D
:100DB000A1960FB6F894DEBF0FBECDBFDF91CF91E5
:100DC0001F910F91FF90EF90DF90CF90BF90AF9069
:100DD0009F908F900895CF92DF92EF92FF920F93A2
:100DE0001F93CF93DF93EC016A017B01211531053D
:100DF00079F4E881F9810190F081E02D642FDF9191
:100E0000CF911F910F91FF90EF90DF90CF900994B9
:100E10002A303105E9F477FF1AC06DE20E946506B9
:100E20008C0144275527BA014C195D096E097F09C9
:100E30002AE0CE010E949206800F911FDF91CF9190
:100E40001F910F91FF90EF90DF90CF9008952AE0CF
:100E5000B701A601CE01DF91CF911F910F91FF90B5
:100E6000EF90DF90CF900C9492060F931F93CF9347
:100E7000DF93EC019A01AB01662757FD6095762F51
:100E80000E94EB068C01CE010E946C06800F911F20
:100E9000DF91CF911F910F9108954F925F926F92C2
:100EA0007F928F929F92AF92BF92CF92DF92EF92FA
:100EB000FF920F931F93CF93DF93EC016A017B01A5
:100EC000B22E9A01AB01C701B6010E94690B8823BB
:100ED00019F065E371E027C026013701E89477F83F
:100EE0002FEF3FEF4FE75FE7C301B2010E94690BAD
:100EF00081110DC02FEF3FEF4FE75FE7C301B20154
:100F00000E94B30918161CF469E371E00CC02FEFBE
:100F10003FEF4FE75FE4C701B6010E94020B1816CE
:100F2000ACF46DE371E0CE01DF91CF911F910F9191
:100F3000FF90EF90DF90CF90BF90AF909F908F90F9
:100F40007F906F905F904F900C944D062FEF3FEF86
:100F50004FE75FECC701B6010E94B30987FDE1CFFF
:100F600020E030E0A901C701B6010E94B30987FF64
:100F70000AC06DE2CE010E9465068C01F7FAF0947A
:100F8000F7F8F09402C000E010E0A12C60E070E0FF
:100F900080E09FE3AB1441F020E030E040E251E418
:100FA0000E94B709A394F6CF9B01AC01C701B6011B
:100FB0000E944F096B017C010E94240A2B013C0115
:100FC0000E94500A9B01AC01C701B6010E944E0964
:100FD0006B017C012AE0B301A201CE010E949206BE
:100FE000080F191FBB2039F061E471E0CE010E94A7
:100FF0004D06080F191F7B2C772041F120E030E0CF
:1010000040E251E4C701B6010E94060B6B017C016E
:101010000E941F0A4B01AA2497FCA094BA2C2AE034
:1010200030E0B501A401CE010E94EB06080F191FA4
:10103000C501B4010E94520A9B01AC01C701B6016F
:101040000E944E096B017C017A94D6CFC801DF91D2
:10105000CF911F910F91FF90EF90DF90CF90BF90B5
:10106000AF909F908F907F906F905F904F9008957A
:101070000F931F93CF93DF93EC010E944D078C01D8
:10108000CE010E946C06800F911FDF91CF911F91BE
:101090000F9108950F931F93CF93DF93EC010E945C
:1010A0008502688779878A879B87E881F981008430
:1010B000F185E02DCE01099597FF15C00E948502AC
:1010C000088519852A853B85601B710B820B930B64
:1010D0000C811D812E813F81601771078207930764
:1010E00020F38FEF9FEFDF91CF911F910F91089524
:1010F000CF93DF93EC01CE010E944A0897FD11C007
:101100008D32910571F09C01205331092A3031054F
:1011100040F0E881F9810680F781E02DCE01099544
:10112000EACFDF91CF910895CF92DF92FF920F9394
:101130001F93CF93DF9300D000D0CDB7DEB76C0103
:10114000062F0E947808FC0197FD4BC020E030E09C
:10115000A901F12C112707FD1095E017F107E9F01F
:10116000ED32F105C1F0CF01C0970A97B0F4AAE0C3
:10117000B0E00E94BE0B9B01AC01CF01AA2797FDF6
:10118000A095BA2F280F391F4A1F5B1F2053310922
:101190004109510902C0FF24F394D601ED91FC915D
:1011A0000680F781E02DC60129833A834B835C8357
:1011B0000995C6010E944A08FC01C09729813A811D
:1011C0004B815C810A9748F2E017F10731F2FF206A
:1011D00061F066277727CB01621B730B840B950B9D
:1011E00006C060E070E0CB0102C0CA01B9010F90F7
:1011F0000F900F900F90DF91CF911F910F91FF9063
:10120000DF90CF90089561E00C9494084F925F9224
:101210006F927F92AF92BF92CF92DF92EF92FF9246
:101220000F931F93CF93DF93CDB7DEB729013A0118
:10123000621B730B840B950B29893A894B895C8956
:101240002A193B094C095D09298B3A8B4B8B5C8B26
:101250009B01AC0169897A898B899C890E946D0BFD
:10126000E418F50806091709A80197010E949F0BC9
:101270002A0D3B1D4C1D5D1DCA01B901DF91CF91A7
:101280001F910F91FF90EF90DF90CF90BF90AF90A4
:101290007F906F905F904F90089508955058BB27AE
:1012A000AA270ED075C166D130F06BD120F031F491
:1012B0009F3F11F41EF45BC10EF4E095E7FB51C1B2
:1012C000E92F77D180F3BA17620773078407950770
:1012D00018F071F49EF58FC10EF4E0950B2EBA2F25
:1012E000A02D0B01B90190010C01CA01A00111242C
:1012F000FF27591B99F0593F50F4503E68F11A16D8
:10130000F040A22F232F342F4427585FF3CF469568
:1013100037952795A795F0405395C9F77EF41F168A
:10132000BA0B620B730B840BBAF09150A1F0FF0F54
:10133000BB1F661F771F881FC2F70EC0BA0F621F40
:10134000731F841F48F4879577956795B795F79530
:101350009E3F08F0B3CF9395880F08F09927EE0FC2
:10136000979587950895D9D008F481E008950CD019
:101370000FC107D140F0FED030F021F45F3F19F0EB
:10138000F0C0511139C1F3C014D198F39923C9F3B6
:101390005523B1F3951B550BBB27AA27621773077B
:1013A000840738F09F5F5F4F220F331F441FAA1F2F
:1013B000A9F333D00E2E3AF0E0E830D091505040EF
:1013C000E695001CCAF729D0FE2F27D0660F771F9D
:1013D000881FBB1F261737074807AB07B0E809F07F
:1013E000BB0B802DBF01FF2793585F4F2AF09E3F14
:1013F000510568F0B6C000C15F3FECF3983EDCF3E6
:10140000869577956795B795F7959F5FC9F7880F8C
:10141000911D9695879597F90895E1E0660F771FDE
:10142000881FBB1F621773078407BA0720F0621B6F
:10143000730B840BBA0BEE1F88F7E095089504D068
:101440006894B111D9C00895BCD088F09F5790F02E
:10145000B92F9927B751A0F0D1F0660F771F881FD9
:10146000991F1AF0BA95C9F712C0B13081F0C3D0F4
:10147000B1E00895C0C0672F782F8827B85F39F092
:10148000B93FCCF3869577956795B395D9F73EF438
:1014900090958095709561957F4F8F4F9F4F0895E0
:1014A000E89409C097FB3EF49095809570956195FE
:1014B0007F4F8F4F9F4F9923A9F0F92F96E9BB27B4
:1014C0009395F695879577956795B795F111F8CF30
:1014D000FAF4BB0F11F460FF1BC06F5F7F4F8F4F9B
:1014E0009F4F16C0882311F096E911C0772321F091
:1014F0009EE8872F762F05C0662371F096E8862F29
:1015000070E060E02AF09A95660F771F881FDAF77F
:10151000880F9695879597F90895990F0008550FAC
:10152000AA0BE0E8FEEF16161706E807F907C0F069
:1015300012161306E407F50798F0621B730B840B71
:10154000950B39F40A2661F0232B242B252B21F44B
:1015500008950A2609F4A140A6958FEF811D811DEB
:10156000089597F99F6780E870E060E008959FEF25
:1015700080EC089500240A9416161706180609062A
:10158000089500240A9412161306140605060895F9
:10159000092E0394000C11F4882352F0BB0F40F481
:1015A000BF2B11F460FF04C06F5F7F4F8F4F9F4FC1
:1015B000089557FD9058440F551F59F05F3F71F043
:1015C0004795880F97FB991F61F09F3F79F08795AA
:1015D0000895121613061406551FF2CF4695F1DF33
:1015E00008C0161617061806991FF1CF86957105C3
:1015F000610508940895E894BB2766277727CB01F7
:1016000097F908958ADF08F48FEF08950BD0C0CFC3
:10161000B1DF28F0B6DF18F0952309F0A2CFA7CFED
:101620001124EACFC6DFA0F3959FD1F3950F50E0C8
:10163000551F629FF001729FBB27F00DB11D639F84
:10164000AA27F00DB11DAA1F649F6627B00DA11D2A
:10165000661F829F2227B00DA11D621F739FB00DD0
:10166000A11D621F839FA00D611D221F749F332740
:10167000A00D611D231F849F600D211D822F762FD9
:101680006A2F11249F5750408AF0E1F088234AF0D6
:10169000EE0FFF1FBB1F661F771F881F9150504022
:1016A000A9F79E3F510570F05CCFA6CF5F3FECF3EA
:1016B000983EDCF3869577956795B795F795E7950E
:1016C0009F5FC1F7FE2B880F911D9695879597F91F
:1016D000089523DF880B990B0895DB018F939F9367
:1016E0000E94BE0BBF91AF91A29F800D911DA39F41
:1016F000900DB29F900D11240895A1E21A2EAA1BFD
:10170000BB1BFD010DC0AA1FBB1FEE1FFF1FA217B1
:10171000B307E407F50720F0A21BB30BE40BF50BAE
:10172000661F771F881F991F1A9469F76095709537
:10173000809590959B01AC01BD01CF010895052EC8
:1017400097FB1EF400940E94B60B57FD07D00E9431
:101750007D0B07FC03D04EF40C94B60B50954095CE
:10176000309521953F4F4F4F5F4F0895909580954D
:10177000709561957F4F8F4F9F4F08950E94CF0BBB
:10178000A59F900DB49F900DA49F800D911D1124D5
:101790000895EE0FFF1F0590F491E02D0994A29F8C
:1017A000B001B39FC001A39F700D811D1124911D35
:1017B000B29F700D811D1124911D0895F894FFCFE3
:1017C0000000FB0180000100000001130507090B68
:1017D0000A0406080A56313A0056323A0056543A7C
:1017E00000464C3A0000000000A90425062B0444E2
:1017F00004360487046E616E00696E66006F76665B
:04180000002E0000B6
:00000001FF
