:100000000C9483010C94B4010C94B4010C94B401CD
:100010000C94B4010C94B4010C94B4010C94B4018C
:100020000C94B4010C94B4010C94B4010C94B4017C
:100030000C94B4010C94B4010C94B4010C94B4016C
:100040000C94B4010C94B4010C94B4010C94B4015C
:100050000C94B4010C94B4010C94B4010C94BB0B3B
:100060000C94B4010C948F090C94C5090C94B40140
:100070000C94B4010C94B4010C94B4010C94B4012C
:100080000C94B4010C94B4010C94B4010C94B4011C
:100090000C94B4010C94B4010C94B4010C94B4010C
:1000A0000C94B4010C94B4010C94B4010C94B401FC
:1000B0000C94B4010C94B4010C94B4010C94B401EC
:1000C0000C94B4010C94B4010C94B4010C94B401DC
:1000D0000C94B4010C94B4010C94B4010C94B401CC
:1000E0000C94B4018F0694069906A306AD06260764
:1000F000B706BF06C706D106DB06E506F406FE0610
:100100002607080712071C0748074B073A073E0750
:10011000440782074F07530759075D0761076707C1
:100120006B076F078207750779077D070C9499069F
:100130000C9461070C94C7060C943E070C94480875
:100140000C948F060C9479070C94D1060C944F07ED
:100150000C9494060C943A060C941B080C94C80852
:100160000C944C0A0C9444070C94BF060C9426087B
:100170000C94EF090C94A6080C9408070C945307F0
:100180000C945D070C94F4060C944B070C94AD068C
:100190000C941C070C94B7060C94E5060C946B07A2
:1001A0000C9467070C947D070C9412070C943A0783
:1001B0000C94F9090C946F070C9448070C9475077C
:1001C0000C9482070C9426070C94A3060C94DB066F
:1001D0000C9459070C94FE060C9434080C940803F4
:1001E00000000A0B02090C0D0E08070304010000B1
:1001F00000000000000000000000000000000000FF
:1002000000000000000000000000000012111000BB
:1002100000000000000000000000000000000000DE
:1002200000000000000001021020200808102040FB
:1002300010204080020102010804020101020408AA
:100240001020408080402010080402018004020138
:100250008040201008040201080402010102040881
:10026000102040800102040810204080050505058B
:10027000070508080808020202020A0A080804041E
:10028000040401010101010101010303030303034C
:100290000303040707070C0C0C0C0C0C0C0C0202DB
:1002A000020206060606060606060B0B0B0B0B0BD8
:1002B0000B0B000020002300260029002C002F003B
:1002C00032000001000003010601090100002200C4
:1002D000250028002B002E00310034000201000010
:1002E000050108010B0100002100240027002A005D
:1002F0002D003000330001010000040107010A0154
:1003000008033A06F90911241FBECFEFD1E2DEBF80
:10031000CDBF00E00CBF12E0A0E0B2E0E8E0FAE1FF
:1003200000E00BBF02C007900D92A234B107D9F7CD
:1003300023E0A2E4B2E001C01D92AB30B207E1F7C6
:1003400013E0C6E0D3E000E006C022970109FE01F9
:100350000BBF0E94C90CC030D10780E00807A9F785
:100360000E943D0A0C94020D0C940000AF92BF92C3
:10037000CF92DF92EF92FF920F931F93CF93DF9371
:100380001F92CDB7DEB76C01E62EF12C5701AA0CF7
:10039000BB1CAC0CBD1CF5010285138517FD09C003
:1003A000B801842F49830E946906015011094981CF
:1003B000F5CF60E0842F0E94BC0781E090E0F5015A
:1003C00093878287F601EE0DFF1D80830F90DF91EA
:1003D000CF911F910F91FF90EF90DF90CF90BF9042
:1003E000AF9008953F924F925F926F927F928F925B
:1003F0009F92AF92BF92CF92DF92EF92FF920F93B4
:100400001F93CF93DF934C01362EC62FD0E044E0EC
:10041000461778F0FE01E65EFD4F4080552447FC0C
:100420005094FE01EB5EFD4F8081992787FD9095EA
:1004300005C044244A94542C8FEF9FEF34016C0E76
:100440007D1EF30145814423F1F02596CC0FDD1F7D
:10045000C80DD91D1982188281E0808360E0842D47
:10046000DF91CF911F910F91FF90EF90DF90CF9090
:10047000BF90AF909F908F907F906F905F904F90C4
:100480003F900C94BC07F2E03F1609F44FC0F315FF
:10049000D8F03320A9F141E0341267C00E9444062D
:1004A000BC01882777FD8095982F1F921F921F927D
:1004B0002FEF2F93A12CB12C650112E2E12EFF2426
:1004C000F39400E010E047C0E3E03E1679F1F4E079
:1004D0003F124BC00E944406BC01882777FD8095DF
:1004E000982F1F921F921F922FEF2F93A12CB12CA8
:1004F0006501EE24EA9413E0F12E00E010E02BC039
:100500000E944406BC01882777FD8095982F1F9292
:100510001F921F922FEF2F93A12CB12C650116EB88
:10052000E12E13E0F12E00E010E015C00E94440619
:10053000BC01882777FD8095982F1F921F921F92EC
:100540002FEF2F93A12CB12C650112ECE12EFF248B
:10055000F39400E010E020E030E0A9010E94740B69
:100560009B010F900F900F900F90C9012F3F310505
:1005700019F014F08FEF90E0CC0FDD1FC80DD91DDE
:100580002A853B852817390789F18032910594F037
:10059000821793071CF42150310902C02F5F3F4F8F
:1005A0003B872A876A857B85842D0E946906F30133
:1005B00010821CC04E97D4F4F3018081811116C0C3
:1005C000A201632DC401DF91CF911F910F91FF9084
:1005D000EF90DF90CF90BF90AF909F908F907F90E3
:1005E0006F905F904F903F900C94B601DF91CF9148
:1005F0001F910F91FF90EF90DF90CF90BF90AF9041
:100600009F908F907F906F905F904F903F90089554
:1006100085E0E2E4F2E0DF01982F1D929A95E9F778
:10062000E7E4F2E0DF011D928A95E9F78AE0E5E070
:10063000F2E0ACE4B2E001900D928A95E1F7089502
:1006400088E0E7E5F2E0DF011D928A95E9F761E0D5
:100650008AE20E94830761E088E20E94830761E0EA
:1006600086E20E94830761E08EE20E94830761E0D8
:1006700080E30E94830761E082E30E94830761E0D8
:1006800084E30E94830761E080E10E94830761E0C8
:1006900081E10E94830761E082E10E94830761E0BB
:1006A00083E10E94830761E084E10E94830761E0A7
:1006B0008DE20E94830760E089E30E94830761E086
:1006C00081E20E94830760E088E30E94830761E083
:1006D00083E30E94830760E086E30E94830761E072
:1006E00085E20E94830760E087E30E94830761E060
:1006F00088E10E94830760E08AE30E94830761E04B
:1007000084E20E94830761E08CE20E94830761E03B
:1007100082E20E94830761E080E20E94830761E039
:100720008EE10E94830761E08CE10E94830761E013
:100730008AE10E94830761E086E10E94830761E00D
:1007400085E10E94830761E088E10E94830760E001
:100750008AE30E94830761E08EE20E94BC0761E0A9
:1007600080E30E94BC0761E082E30E94BC0761E075
:1007700084E30E94BC0761E080E10E94BC0761E065
:1007800081E10E94BC0761E082E10E94BC0761E058
:1007900083E10E94BC0761E084E10E94BC0726E07F
:1007A00040E052EC61E070E085E692E00C942D09A7
:1007B000CF93DF93C2E3D0E060E082E492E00E9456
:1007C000F20161E082E492E00E94F20164E082E4DE
:1007D00092E00E94F20162E082E492E00E94F20163
:1007E00063E082E492E00E94F2018FE592E00E94D1
:1007F000C404219709F785E692E00E941B08892B23
:1008000009F4ABC0C7E5D2E085E692E00E941B0880
:10081000892B31F085E692E00E9434088993F4CF69
:1008200087E592E00E94DC0CEC0188E0E7E5F2E06D
:10083000DF011D928A95E9F7C0FF11C06FE172E0F8
:1008400085E692E00E948A0A8FE592E00E94B80451
:100850004AE050E0BC0185E692E00E945C0BC1FFDB
:1008600011C063E272E085E692E00E948A0A8FE599
:1008700092E00E94BC044AE050E0BC0185E692E0B0
:100880000E945C0BC2FF11C067E272E085E692E055
:100890000E948A0A8FE592E00E94C0044AE050E07C
:1008A000BC0185E692E00E945C0BD6FF38C06BE28B
:1008B00072E085E692E00E94A70A60914C02709176
:1008C0004D024AE050E085E692E00E945C0B6091A8
:1008D0004E0270914F024AE050E085E692E00E949D
:1008E0005C0B60915002709151024AE050E085E645
:1008F00092E00E945C0B60915402709155024AE0B4
:1009000050E085E692E00E945C0B6091520270918B
:1009100053024AE050E085E692E00E945C0B6FE2F1
:1009200072E085E692E00E948A0AC5FB882780F97A
:1009300080934702C6FB882780F9809348028C2F5A
:1009400082958170809349028D2F817080934B0234
:10095000C7FBCC27C0F9C0934A02DF91CF9108951D
:1009600086E592E00C94200386E592E00C94D8038F
:10097000FC01808191810895FC0182819381089519
:10098000FC018481958108952F923F924F925F924E
:100990006F927F928F929F92AF92BF92CF92DF928F
:1009A000EF92FF920F931F93CF93DF932C0183E479
:1009B0000E9444064C0184E40E944406EC0185E454
:1009C0000E9444063C018FE5881681E0980614F0E9
:1009D00061E006C092E4891691E0990624F460E093
:1009E0008AE20E94BC07C038D10554F061E088E279
:1009F0000E94BC07CA39D10554F060E08AE205C004
:100A0000CB34D10524F460E088E20E94BC07ECE915
:100A10006E1671043CF060E086E20E94BC0760E064
:100A200088E20CC0F8E76F16710454F488E20E9463
:100A3000F20761E0892B09F060E086E20E94BC07C2
:100A40001F921F9283E0382E3F9282E58F9394EBA2
:100A5000A92EB12CC12CD12C1EEBE12EFF24F39436
:100A600000E010E029E231E040E050E0B4018827E6
:100A700077FD8095982F0E94740BF201718360833B
:100A80001F921F923F9230E2232E2F9246E9A42E0E
:100A9000B12CC12CD12C10EAE12EF12C00E010E099
:100AA00028E230E040E050E0BE01882777FD8095E5
:100AB000982F0E94740BF201738362831F921F921E
:100AC0003F922F9264E6A62EB12CC12CD12C2EE29F
:100AD00030E040E050E0B301882777FD8095982F03
:100AE0000E94740BF201758364838DB79EB70C96D8
:100AF0000FB6F8949EBF0FBE8DBF97E969167104BB
:100B000014F061E005C0ECE86E16710424F460E0B6
:100B10008AE10E94BC07C30185569109879728F492
:100B200061E086E10E94BC0710C0C30181559109B4
:100B30008634910550F060E086E10E94BC07F0E544
:100B40006F16710414F461E008C080E5681A71083A
:100B500095E16916710420F060E085E10E94BC0710
:100B6000C739D10514F061E004C0CC38D10524F4B4
:100B700060E080E20E94BC07CE018556910987970C
:100B800028F461E08EE10E94BC070FC0CE018155C0
:100B900091098634910548F060E08EE10E94BC071F
:100BA000C035D10514F461E005C0C055D109659781
:100BB00020F060E08CE10E94BC07E3EC8E16E1E0DF
:100BC0009E0614F061E006C0FEEA8F16F1E09F0673
:100BD00024F460E084E20E94BC07C4018F55914078
:100BE0008F34910528F461E08CE20E94BC0711C0AB
:100BF000C4018E5591408536910558F060E08CE235
:100C00000E94BC078EE5881681E0980614F461E026
:100C100009C09CE2891A91E0990AE3E38E169104D7
:100C2000B0F060E082E2DF91CF911F910F91FF90D1
:100C3000EF90DF90CF90BF90AF909F908F907F907C
:100C40006F905F904F903F902F900C94BC07DF9176
:100C5000CF911F910F91FF90EF90DF90CF90BF90B9
:100C6000AF909F908F907F906F905F904F903F904C
:100C70002F90089586E0EFE0F2E0AFE5B2E001905A
:100C80000D928A95E1F70895863308F086532091F6
:100C90007B00982F9870277F922B90937B00877012
:100CA0002091040290E4299F90011124822B8093CB
:100CB0007C0080917A00806480937A0080917A0031
:100CC00086FDFCCF809178002091790090E0922BF6
:100CD00008951F93CF93DF93182FEB0161E00E94DB
:100CE0008307209711F460E004C0CF3FD10539F4A9
:100CF00061E0812FDF91CF911F910C94BC07E12F10
:100D0000F0E0E052FE4F449150E0FA013197E231B9
:100D1000F10508F09BC0EE58FF4F0C94B80C84B559
:100D2000806884BDC7BD97C084B5806284BDC8BDDE
:100D300092C080918000806880938000D093890069
:100D4000C093880088C0809180008062809380007A
:100D5000D0938B00C0938A007EC080918000886011
:100D600080938000D0938D00C0938C0074C08091DC
:100D7000B00080688093B000C093B3006CC08091D5
:100D8000B00080628093B000C093B40064C08091D2
:100D90009000806880939000D0939900C093980051
:100DA0005AC080919000806280939000D0939B0005
:100DB000C0939A0050C0809190008860809390000A
:100DC000D0939D00C0939C0046C08091A000806895
:100DD0008093A0008091A0008F7B8093A000D0938F
:100DE000A900C093A80037C08091A00080628093C2
:100DF000A000D093AB00C093AA002DC08091A000AA
:100E000088608093A000D093AD00C093AC0023C055
:100E100080912001806880932001D0932901C093A4
:100E2000280119C080912001806280932001D09315
:100E30002B01C0932A010FC080912001886080930C
:100E40002001D0932D01C0932C0105C0C038D105DD
:100E50000CF04ECF48CFDF91CF911F91089590E0D5
:100E6000FC013197E231F10508F04CC0EC57FF4F1F
:100E70000C94B80C809180008F7703C08091800023
:100E80008F7D80938000089580918000877FF9CFC7
:100E900084B58F7702C084B58F7D84BD089580911D
:100EA000B0008F7703C08091B0008F7D8093B00039
:100EB0000895809190008F7707C0809190008F7D7A
:100EC00003C080919000877F809390000895809167
:100ED000A0008F7707C08091A0008F7D03C0809114
:100EE000A000877F8093A0000895809120018F77D4
:100EF00007C0809120018F7D03C080912001877FF2
:100F0000809320010895CF93DF9390E0FC01EA5D88
:100F1000FD4F2491FC01E459FD4F8491882349F150
:100F200090E0880F991FFC01EA51FD4FA591B49103
:100F300084539D4FFC01C591D4919FB7611108C0A6
:100F4000F8948C91209582238C93888182230AC007
:100F5000623051F4F8948C91322F309583238C9326
:100F60008881822B888304C0F8948C91822B8C9387
:100F70009FBFDF91CF9108950F931F93CF93DF937E
:100F80001F92CDB7DEB7282F30E0F901E052FE4FB7
:100F90008491F901EA5DFD4F1491F901E459FD4F87
:100FA00004910023C9F0882321F069830E942F0750
:100FB0006981E02FF0E0EE0FFF1FE453FD4FA59194
:100FC000B4919FB7F8948C91611103C0109581235F
:100FD00001C0812B8C939FBF0F90DF91CF911F9108
:100FE0000F910895CF93DF93282F30E0F901E0525D
:100FF000FE4F8491F901EA5DFD4FD491F901E45966
:10100000FD4FC491CC2391F081110E942F07EC2F4A
:10101000F0E0EE0FFF1FEE54FD4FA591B4912C911F
:101020002D2381E090E021F480E002C080E090E098
:10103000DF91CF910895FC01818D228D90E0805C3D
:101040009F4F821B91098F7399270895FC01918D01
:10105000828D981731F0828DE80FF11D858D90E01B
:1010600008958FEF9FEF0895FC01918D828D981761
:1010700061F0828DDF01A80FB11D5D968C91928D7C
:101080009F5F9F73928F90E008958FEF9FEF089579
:101090008FEE99E0892B41F080E090E0892B21F0E0
:1010A0000E94EF09811125C080E090E0892B41F07A
:1010B00080E090E0892B21F00E94000081111CC08B
:1010C00080E090E0892B41F080E090E0892B21F0D6
:1010D0000E940000811113C080E090E0892BA1F0F4
:1010E00080E090E0892B81F00E94000081110AC00D
:1010F00008950E940000D8CF0E940000E1CF0E9416
:101100000000EACF0C9400000895FC01848DDF01FB
:10111000A80FB11DA35ABF4F2C91848D90E001966A
:101120008F739927848FA689B7892C93A089B18959
:101130008C9180648C93938D848D981306C0028863
:10114000F389E02D80818F7D80830895CF93DF9395
:10115000EC01888D8823C9F0EA89FB89808185FDAF
:1011600005C0A889B9898C9186FD0FC00FB607FC10
:10117000F5CF808185FFF2CFA889B9898C9185FF51
:10118000EDCFCE010E948508E7CFDF91CF91089582
:10119000CF92DF92FF920F931F93CF93DF931F9213
:1011A000CDB7DEB76C01DC015B969C915B975C96DA
:1011B0008C915C97981307C05096ED91FC915197D4
:1011C000808185FD32C0F601038D10E00F5F1F4F57
:1011D0000F731127F02EF601848DF81211C00FB68F
:1011E00007FCF9CFD6015096ED91FC915197808183
:1011F00085FFF1CFC60169830E9485086981EBCF25
:10120000838DE80FF11DE35AFF4F6083D6015B9693
:101210000C935B975296ED91FC915397808180627D
:10122000808381E058968C930DC0D6015696ED913F
:10123000FC91579760835096ED91FC915197808176
:101240008064808381E090E00F90DF91CF911F91C7
:101250000F91FF90DF90CF900895BF92CF92DF92D1
:10126000EF92FF92CF93DF93EC016A017B01B22EE4
:10127000E889F98982E08083411581EE580761058C
:101280007105A1F060E079E08DE390E0A70196019F
:101290000E94770C21503109410951095695479513
:1012A00037952795211580E1380798F0E889F98965
:1012B000108260E874E88EE190E0A70196010E9438
:1012C000770C2150310941095109569547953795B9
:1012D0002795EC85FD853083EE85FF852083188E6C
:1012E000EC89FD89B082EA89FB89808180618083F5
:1012F000EA89FB89808188608083EA89FB89808113
:1013000080688083EA89FB8980818F7D8083DF917B
:10131000CF91FF90EF90DF90CF90BF9008951F92F4
:101320000F920FB60F9211240BB60F922F938F933B
:101330009F93EF93FF93E0917502F0917602808185
:10134000E0917B02F0917C0282FD12C0908180913D
:101350007E028F5F8F7320917F02821751F0E091A0
:101360007E02F0E0EB59FD4F958F80937E0201C025
:101370008081FF91EF919F918F912F910F900BBEE4
:101380000F900FBE0F901F9018951F920F920FB6DF
:101390000F9211240BB60F922F933F934F935F93AD
:1013A0006F937F938F939F93AF93BF93EF93FF932D
:1013B00085E692E00E948508FF91EF91BF91AF9181
:1013C0009F918F917F916F915F914F913F912F915D
:1013D0000F900BBE0F900FBE0F901F90189585E6D3
:1013E00092E00E941B0821E0892B09F420E0822F63
:1013F0000895109268021092670288EE93E0A0E0D0
:10140000B0E08093690290936A02A0936B02B0935C
:101410006C0285E392E0909366028093650285EC0E
:1014200090E0909372028093710284EC90E090932C
:1014300074028093730280EC90E090937602809324
:10144000750281EC90E0909378028093770282ECB1
:1014500090E090937A028093790286EC90E09093EA
:101460007C0280937B0210927E0210927F02109287
:10147000800210928102089508950E94050C0E9436
:101480003C0A0E94B004C8E4D8E00E94B40420974B
:10149000E1F30E944808F9CFCF92DF92EF92FF92DA
:1014A0000F931F93CF93DF936C017A01EB01E60E4C
:1014B000F71E00E010E0CE15DF0561F06991D6015E
:1014C000ED91FC910190F081E02DC6011995080F76
:1014D000191FF1CFC801DF91CF911F910F91FF909C
:1014E000EF90DF90CF9008956115710581F0DB01D9
:1014F0000D900020E9F7AD0141505109461B570BF3
:10150000DC01ED91FC910280F381E02D199480E0E3
:1015100090E008950C94740ADC01ED91FC91019027
:10152000F081E02D19940F931F93CF93DF93EC017B
:101530006DE00E948C0A8C016AE0CE010E948C0A48
:10154000800F911FDF91CF911F910F9108950F93FD
:101550001F93CF93DF93EC010E94740A8C01CE019C
:101560000E94930A800F911FDF91CF911F910F91DD
:1015700008958F929F92AF92BF92CF92DF92EF9297
:10158000FF920F931F93CF93DF93CDB7DEB7A19751
:101590000FB6F894DEBF0FBECDBF7C01C42EE52F81
:1015A000CB01D22E19A221E02D1510F02AE0D22E67
:1015B0008E010F5D1F4F8D2C912CA12CB12C6C2D09
:1015C0007E2FA50194010E94770C8C2DD29E80194C
:1015D0001124015011098A3014F4805D01C0895C26
:1015E000F8018083211531054105510521F0C22EF6
:1015F000E32FCA01E4CFB801C7010E94740AA19683
:101600000FB6F894DEBF0FBECDBFDF91CF911F9113
:101610000F91FF90EF90DF90CF90BF90AF909F9091
:101620008F900895CF92DF92EF92FF920F931F93C6
:10163000CF93DF93EC016A017B012115310579F429
:10164000E881F9810190F081E02D642FDF91CF9145
:101650001F910F91FF90EF90DF90CF9019942A3057
:101660003105E9F477FF1AC06DE20E948C0A8C0103
:1016700044275527BA014C195D096E097F092AE0F4
:10168000CE010E94B90A800F911FDF91CF911F9167
:101690000F91FF90EF90DF90CF9008952AE0B7016F
:1016A000A601CE01DF91CF911F910F91FF90EF9096
:1016B000DF90CF900C94B90A0F931F93CF93DF93D1
:1016C000EC019A01AB01662757FD6095762F0E94C9
:1016D000120B8C01CE010E94930A800F911FDF91A3
:1016E000CF911F910F9108954F925F926F927F92C9
:1016F000AF92BF92CF92DF92EF92FF920F931F9320
:10170000CF93DF93CDB7DEB729013A01621B730B8C
:10171000840B950B2A893B894C895D892A193B09E1
:101720004C095D092A8B3B8B4C8B5D8B9B01AC017B
:101730006A897B898C899D890E94670CE418F50869
:1017400006091709A80197010E94990C2A0D3B1D53
:101750004C1D5D1DCA01B901DF91CF911F910F9101
:10176000FF90EF90DF90CF90BF90AF907F906F9001
:101770005F904F9008951F920F920FB60F92112411
:101780002F933F938F939F93AF93BF9380910303C6
:1017900090910403A0910503B091060330910203D8
:1017A00023E0230F2D3720F40196A11DB11D05C0A4
:1017B00026E8230F0296A11DB11D209302038093FA
:1017C000030390930403A0930503B0930603809151
:1017D000070390910803A0910903B0910A030196B1
:1017E000A11DB11D8093070390930803A0930903E3
:1017F000B0930A03BF91AF919F918F913F912F9129
:101800000F900FBE0F901F901895789484B582604A
:1018100084BD84B5816084BD85B5826085BD85B594
:10182000816085BDEEE6F0E0808181608083E1E843
:10183000F0E010828081826080838081816080837B
:10184000E0E8F0E0808181608083E1EBF0E080817E
:1018500084608083E0EBF0E0808181608083E1E957
:10186000F0E0808182608083808181608083E0E914
:10187000F0E0808181608083E1EAF0E08081826035
:101880008083808181608083E0EAF0E080818160F4
:101890008083E1E2F1E080818260808380818160E9
:1018A0008083E0E2F1E0808181608083EAE7F0E01C
:1018B0008081846080838081826080838081816078
:1018C00080838081806880831092C1000895DB014D
:1018D0008F939F930E94BE0CBF91AF91A29F800DEA
:1018E000911DA39F900DB29F900D11240895A1E228
:1018F0001A2EAA1BBB1BFD010DC0AA1FBB1FEE1F8A
:10190000FF1FA217B307E407F50720F0A21BB30BD4
:10191000E40BF50B661F771F881F991F1A9469F750
:1019200060957095809590959B01AC01BD01CF01AC
:101930000895052E97FB1EF400940E94B00C57FDED
:1019400007D00E94770C07FC03D04EF40C94B00C27
:1019500050954095309521953F4F4F4F5F4F0895DB
:1019600090958095709561957F4F8F4F9F4F08950B
:10197000EE0FFF1F0590F491E02D19940E94CD0CFD
:10198000A59F900DB49F900DA49F800D911D1124D3
:1019900008950790F691E02D1994A29FB001B39F8E
:1019A000C001A39F700D811D1124911DB29F700D68
:1019B000811D1124911D0895FC0188279927E89421
:1019C00021912032E9F3293010F02E30C8F32B3268
:1019D00041F02D3239F4689404C00E94FA0C820F51
:1019E000911D219120532A30C0F31EF490958195CA
:1019F0009F4F08957AE0979F902D879F802D910D9E
:081A000011240895F894FFCFB2
:101A0800010000000101000100010001000100B413
:101A180000960064003938363A372D213318255698
:101A2800313A0056323A0056543A0056493A003B89
:101A38000000000000C8084C0A1B0834082608A645
:021A4800080094
:00000001FF
