:100000000C9482010C94B3010C94B3010C94B301D1
:100010000C94B3010C94B3010C94B3010C94B30190
:100020000C94B3010C94B3010C94B3010C94B30180
:100030000C94B3010C94B3010C94B3010C94B30170
:100040000C94B3010C94B3010C94B3010C94B30160
:100050000C94B3010C94B3010C94B3010C947C0484
:100060000C94B3010C94CA080C9400090C94B301CD
:100070000C94B3010C94B3010C94B3010C94B30130
:100080000C94B3010C94B3010C94B3010C94B30120
:100090000C94B3010C94B3010C94B3010C94B30110
:1000A0000C94B3010C94B3010C94B3010C94B30100
:1000B0000C94B3010C94B3010C94B3010C94B301F0
:1000C0000C94B3010C94B3010C94B3010C94B301E0
:1000D0000C94B3010C94B3010C94B3010C94B301D0
:1000E0000C94B301CA05CF05D405DE05E805610609
:1000F000F205FA0502060C06160620062F0639063A
:10010000610643064D065706830686067506790680
:100110007F06BD068A068E06940698069C06A206F1
:10012000A606AA06BD06B006B406B8060C94870952
:100130000C947F060C94CA050C94B4060C942F06FC
:100140000C9457060C948E060C946F070C94BD0605
:100150000C9486060C94AA060C94B0060C945607D0
:100160000C9416060C944D060C94DE050C94CF05E9
:100170000C94A6060C94F2050C94FA050C940C064B
:100180000C94A2060C94E1070C948A060C94830745
:100190000C94E5020C9483060C9475060C943906B5
:1001A0000C9420060C9402060C94D4050C940308BD
:1001B0000C9443060C942A090C94E8050C942C0426
:1001C0000C9498060C9461060C9494060C949C066E
:1001D0000C94B8060C9479060C9434090C946107BD
:1001E00000000A0B02090C0D0E08070304010000B1
:1001F00000000000000000000000000000000000FF
:1002000000000000000000000000000012111000BB
:1002100000000000000000000000000000000000DE
:1002200000000000000001021020200808102040FB
:1002300010204080020102010804020101020408AA
:100240001020408080402010080402018004020138
:100250008040201008040201080402010102040881
:10026000102040800102040810204080050505058B
:10027000070508080808020202020A0A080804041E
:10028000040401010101010101010303030303034C
:100290000303040707070C0C0C0C0C0C0C0C0202DB
:1002A000020206060606060606060B0B0B0B0B0BD8
:1002B0000B0B000020002300260029002C002F003B
:1002C00032000001000003010601090100002200C4
:1002D000250028002B002E00310034000201000010
:1002E000050108010B0100002100240027002A005D
:1002F0002D003000330001010000040107010A0154
:10030000E502340911241FBECFEFD1E2DEBFCDBF1D
:1003100000E00CBF12E0A0E0B2E0ECE8FEE100E09B
:100320000BBF02C007900D92A834B107D9F722E0A5
:10033000A8E4B2E001C01D92AF3FB207E1F713E0BD
:10034000C4E0D3E000E006C022970109FE010BBF24
:100350000E94310FC030D10780E00807A9F70E9442
:1003600078090C94440F0C9400008F929F92AF92E6
:10037000BF92CF92DF92EF92FF920F931F93CF9392
:10038000DF931F92CDB7DEB78C01C62ED12C56015C
:10039000AA0CBB1CF801EA0DFB1D85809680740138
:1003A000EE0CFF1C97FC13C0B701842F49830E94F9
:1003B000A4056AE070E080E090E00E94F50481E02E
:1003C000881A9108E2E0EE1AF1084981EBCF60E06B
:1003D00070E0842F0E94A405F801EA0DFB1D16822F
:1003E0001582F801EC0DFD1D81E080830F90DF91F7
:1003F000CF911F910F91FF90EF90DF90CF90BF9022
:10040000AF909F908F9008952F923F924F925F925E
:100410006F927F928F929F92AF92BF92CF92DF9214
:10042000EF92FF920F931F93CF93DF9300D0CDB73E
:10043000DEB79B838A836983862E912C653078F49E
:10044000F401E05FFD4F4080552447FC5094F401D7
:10045000E55FFD4F8081992787FD909505C0442475
:100460004A94542C8FEF9FEF1401220C331C6A80A6
:100470007B80620C731CF3012581368137FF1AC023
:1004800060E070E0842D0F900F900F90DF91CF917E
:100490001F910F91FF90EF90DF90CF90BF90AF90A2
:1004A0009F908F907F906F905F904F903F902F9094
:1004B0000C94A4050E947F05BC01882777FD8095D8
:1004C000982F1F921F921F9228EC2F93A12CB12CD2
:1004D0006501EE24EA9413E0F12E00E010E020E044
:1004E00030E0A9010E94680CF301858196810F908C
:1004F0000F900F900F908617970769F16F31710574
:1005000064F16817790714F4019702C00196F301AA
:10051000968385836EE170E080E090E00E94F504B0
:100520006A807B80620C731CF301658176814AE0EE
:1005300050E082E692E00E94970AF301658176819D
:10054000660F771F842D0E94A405EA81FB81E80DC8
:10055000F91D108224C04F9714F5EA81FB81E80D44
:10056000F91D808181111BC0A20169818A819B8153
:100570000F900F900F90DF91CF911F910F91FF90EF
:10058000EF90DF90CF90BF90AF909F908F907F9033
:100590006F905F904F903F902F900C94B5010F900B
:1005A0000F900F90DF91CF911F910F91FF90EF90DF
:1005B000DF90CF90BF90AF909F908F907F906F9083
:1005C0005F904F903F902F900895E8E4F2E085E02F
:1005D000DF011D928A95E9F78AE0EDE4F2E0DF01A0
:1005E0001D928A95E9F7089526E040E052EC61E01B
:1005F00070E082E692E00C94680860E088E492E0A3
:100600000E94040261E088E492E00E94040264E037
:1006100088E492E00E94040263E088E492E00E9491
:10062000040262E088E492E00E94040288E592E01D
:100630000C944A048F929F92AF92BF92CF92DF9216
:10064000EF92FF9282E692E00E94650C6B017C01C2
:10065000CB0181709927892BA1F088E592E00E9457
:1006600037044B015C0165E172E082E692E00E9492
:10067000E20922E030E0B501A40182E692E00E94A6
:100680009A0BC60182709927892BA1F088E592E028
:100690000E943C044B015C0169E172E082E692E059
:1006A0000E94C50922E030E0B501A40182E692E093
:1006B0000E949A0BC60184709927892BA1F088E5C6
:1006C00092E00E9441044B015C016DE172E082E620
:1006D00092E00E94C50922E030E0B501A40182E663
:1006E00092E00E949A0BC60188709927892BA1F08D
:1006F00088E592E00E9446044B015C0161E272E0F1
:1007000082E692E00E94C50922E030E0B501A40132
:1007100082E692E00E949A0BC601AA2797FDA09557
:10072000BA2FA0FF38C065E272E082E692E00E9434
:10073000C50960914D0270914E024AE050E082E698
:1007400092E00E94970A60914F02709150024AE035
:1007500050E082E692E00E94970A60915102709107
:1007600052024AE050E082E692E00E94970A6091CD
:100770005502709156024AE050E082E692E00E94F3
:10078000970A60915302709154024AE050E082E669
:1007900092E00E94970AC60180729927892B29F45A
:1007A00080914D0290914E0202C08FEF9FEF909387
:1007B0004E0280934D02C60180749927892B29F43B
:1007C00080914F029091500202C08FEF9FEF909363
:1007D000500280934F02C60180719927892B29F41A
:1007E000809151029091520202C08FEF9FEF90933F
:1007F000520280935102C60188279170892B29F4F7
:10080000809155029091560202C08FEF9FEF909316
:1008100056028093550280E8C822DD24CD2829F4B1
:10082000809153029091540202C08FEF9FEF9093FA
:10083000540280935302FF90EF90DF90CF90BF90CF
:10084000AF909F908F90089587E592E00C94F4020A
:1008500087E592E00C94FD0282E692E00E94560742
:10086000892B21F087E592E00C941A03089560E04B
:1008700070E088E492E4089560E070E088E791E435
:1008800008956DEC7CEC87E992E4089560E070E0F7
:10089000CB010895EF92FF920F931F93CF93DF93B5
:1008A0001F92CDB7DEB78DE00E942D07682F8EE036
:1008B00069830E942D077C018FE00E942D078C0127
:1008C00069818AE00E94F70661E0E114F10409F40D
:1008D00060E08BE00E94F70661E0EF2819F0012B41
:1008E00009F060E08CE00F90DF91CF911F910F91A4
:1008F000FF90EF900C94F7061F920F920FB60F9295
:1009000011242F933F938F939F93AF93BF93809125
:100910005A0290915B02A0915C02B0915D0230910D
:10092000590223E0230F2D3720F40196A11DB11D9C
:1009300005C026E8230F0296A11DB11D2093590280
:1009400080935A0290935B02A0935C02B0935D0285
:1009500080915E0290915F02A0916002B09161026D
:100960000196A11DB11D80935E0290935F02A0933A
:100970006002B0936102BF91AF919F918F913F91BF
:100980002F910F900FBE0F901F9018952FB7F894CE
:1009900060915A0270915B0280915C0290915D02BD
:1009A0002FBF08953FB7F89480915E0290915F0247
:1009B000A0916002B091610226B5A89B05C02F3FAF
:1009C00019F00196A11DB11D3FBF6627782F892F11
:1009D0009A2F620F711D811D911D42E0660F771FD6
:1009E000881F991F4A95D1F70895CF92DF92EF9211
:1009F000FF92CF93DF936B017C010E94D204EB0145
:100A0000C114D104E104F10489F00E94AF0C0E94EA
:100A1000D2046C1B7D0B683E734090F381E0C81AD2
:100A2000D108E108F108C851DC4FEACFDF91CF913E
:100A3000FF90EF90DF90CF900895789484B5826016
:100A400084BD84B5816084BD85B5826085BD85B572
:100A5000816085BDEEE6F0E0808181608083E1E821
:100A6000F0E0108280818260808380818160808359
:100A7000E0E8F0E0808181608083E1EBF0E080815C
:100A800084608083E0EBF0E0808181608083E1E935
:100A9000F0E0808182608083808181608083E0E9F2
:100AA000F0E0808181608083E1EAF0E08081826013
:100AB0008083808181608083E0EAF0E080818160D2
:100AC0008083E1E2F1E080818260808380818160C7
:100AD0008083E0E2F1E0808181608083EAE7F0E0FA
:100AE0008081846080838081826080838081816056
:100AF00080838081806880831092C100089586334E
:100B000008F0865320917B00982F9870277F922BB6
:100B100090937B00877020910A0290E4299F9001B6
:100B20001124822B80937C0080917A0080648093D2
:100B30007A0080917A0086FDFCCF80917800209128
:100B4000790090E0922B08951F93CF93DF93182F95
:100B5000EB0161E00E94BE06209711F460E004C042
:100B6000CF3FD10539F461E0812FDF91CF911F9103
:100B70000C94F706E12FF0E0E052FE4F449150E074
:100B8000FA013197E231F10508F09BC0EE58FF4FB2
:100B90000C94200F84B5806884BDC7BD97C084B510
:100BA000806284BDC8BD92C08091800080688093BF
:100BB0008000D0938900C093880088C08091800015
:100BC000806280938000D0938B00C0938A007EC0A7
:100BD00080918000886080938000D0938D00C093C6
:100BE0008C0074C08091B00080688093B000C09386
:100BF000B3006CC08091B00080628093B000C0935D
:100C0000B40064C080919000806880939000D0937D
:100C10009900C09398005AC08091900080628093A0
:100C20009000D0939B00C0939A0050C08091900098
:100C3000886080939000D0939D00C0939C0046C034
:100C40008091A00080688093A0008091A0008F7B9D
:100C50008093A000D093A900C093A80037C08091D2
:100C6000A00080628093A000D093AB00C093AA0044
:100C70002DC08091A00088608093A000D093AD002B
:100C8000C093AC0023C08091200180688093200134
:100C9000D0932901C093280119C08091200180625E
:100CA00080932001D0932B01C0932A010FC0809123
:100CB0002001886080932001D0932D01C0932C01E6
:100CC00005C0C038D1050CF04ECF48CFDF91CF9191
:100CD0001F91089590E0FC013197E231F10508F091
:100CE0004CC0EC57FF4F0C94200F809180008F7701
:100CF00003C0809180008F7D809380000895809153
:100D00008000877FF9CF84B58F7702C084B58F7D4F
:100D100084BD08958091B0008F7703C08091B000AA
:100D20008F7D8093B0000895809190008F7707C0E9
:100D3000809190008F7D03C080919000877F809389
:100D4000900008958091A0008F7707C08091A00047
:100D50008F7D03C08091A000877F8093A0000895BD
:100D6000809120018F7707C0809120018F7D03C083
:100D700080912001877F809320010895CF93DF9396
:100D800090E0FC01EA5DFD4F2491FC01E459FD4F28
:100D90008491882349F190E0880F991FFC01EA5162
:100DA000FD4FA591B49184539D4FFC01C591D49101
:100DB0009FB7611108C0F8948C91209582238C9381
:100DC000888182230AC0623051F4F8948C91322FCA
:100DD000309583238C938881822B888304C0F89478
:100DE0008C91822B8C939FBFDF91CF9108950F93AD
:100DF0001F93CF93DF931F92CDB7DEB7282F30E03C
:100E0000F901E052FE4F8491F901EA5DFD4F149122
:100E1000F901E459FD4F04910023C9F0882321F022
:100E200069830E946A066981E02FF0E0EE0FFF1FE0
:100E3000E453FD4FA591B4919FB7F8948C91611143
:100E400003C01095812301C0812B8C939FBF0F900D
:100E5000DF91CF911F910F910895CF93DF93282FAA
:100E600030E0F901E052FE4F8491F901EA5DFD4F57
:100E7000D491F901E459FD4FC491CC2391F0811133
:100E80000E946A06EC2FF0E0EE0FFF1FEE54FD4FBC
:100E9000A591B4912C912D2381E090E021F480E084
:100EA00002C080E090E0DF91CF910895FC01818D38
:100EB000228D90E0805C9F4F821B91098F73992750
:100EC0000895FC01918D828D981731F0828DE80F85
:100ED000F11D858D90E008958FEF9FEF0895FC013F
:100EE000918D828D981761F0828DDF01A80FB11D61
:100EF0005D968C91928D9F5F9F73928F90E0089585
:100F00008FEF9FEF08958AE299E0892B41F08CE200
:100F100094E0892B21F00E942A09811125C080E0EC
:100F200090E0892B41F080E090E0892B21F00E9435
:100F3000000081111CC080E090E0892B41F080E02E
:100F400090E0892B21F00E940000811113C080E005
:100F500090E0892BA1F080E090E0892B81F00E9445
:100F6000000081110AC008950E942C04D8CF0E946D
:100F70000000E1CF0E940000EACF0C940000089529
:100F8000FC01848DDF01A80FB11DA35ABF4F2C9126
:100F9000848D90E001968F739927848FA689B789F5
:100FA0002C93A089B1898C9180648C93938D848DCE
:100FB000981306C00288F389E02D80818F7D80839D
:100FC0000895CF93DF93EC01888D8823C9F0EA89D7
:100FD000FB89808185FD05C0A889B9898C9186FD32
:100FE0000FC00FB607FCF5CF808185FFF2CFA8892F
:100FF000B9898C9185FFEDCFCE010E94C007E7CF64
:10100000DF91CF910895CF92DF92FF920F931F93BC
:10101000CF93DF931F92CDB7DEB76C01DC015B96F7
:101020009C915B975C968C915C97981307C0509647
:10103000ED91FC915197808185FD32C0F601038DC1
:1010400010E00F5F1F4F0F731127F02EF601848DF4
:10105000F81211C00FB607FCF9CFD6015096ED91EA
:10106000FC915197808185FFF1CFC60169830E9471
:10107000C0076981EBCF838DE80FF11DE35AFF4F65
:101080006083D6015B960C935B975296ED91FC9131
:10109000539780818062808381E058968C930DC045
:1010A000D6015696ED91FC91579760835096ED913D
:1010B000FC91519780818064808381E090E00F9063
:1010C000DF91CF911F910F91FF90DF90CF90089506
:1010D000BF92CF92DF92EF92FF92CF93DF93EC011A
:1010E0006A017B01B22EE889F98982E0808341158B
:1010F00081EE580761057105A1F060E079E08DE3AC
:1011000090E0A70196010E94DF0E215031094109AC
:1011100051095695479537952795211580E1380750
:1011200098F0E889F989108260E874E88EE190E02F
:10113000A70196010E94DF0E215031094109510992
:101140005695479537952795EC85FD853083EE8537
:10115000FF852083188EEC89FD89B082EA89FB899E
:10116000808180618083EA89FB89808188608083B7
:10117000EA89FB89808180688083EA89FB89808194
:101180008F7D8083DF91CF91FF90EF90DF90CF90A4
:10119000BF9008951F920F920FB60F9211240BB6B5
:1011A0000F922F938F939F93EF93FF93E09172028F
:1011B000F09173028081E0917802F091790282FDD2
:1011C00012C0908180917B028F5F8F7320917C028F
:1011D000821751F0E0917B02F0E0EE59FD4F958FC0
:1011E00080937B0201C08081FF91EF919F918F914D
:1011F0002F910F900BBE0F900FBE0F901F90189560
:101200001F920F920FB60F9211240BB60F922F93CD
:101210003F934F935F936F937F938F939F93AF937E
:10122000BF93EF93FF9382E692E00E94C007FF9185
:10123000EF91BF91AF919F918F917F916F915F914E
:101240004F913F912F910F900BBE0F900FBE0F90BB
:101250001F90189582E692E00E94560721E0892BA4
:1012600009F420E0822F0895109265021092640222
:1012700088EE93E0A0E0B0E080936602909367026E
:10128000A0936802B09369028DE292E090936302AA
:101290008093620285EC90E090936F0280936E02DF
:1012A00084EC90E0909371028093700280EC90E067
:1012B000909373028093720281EC90E09093750298
:1012C0008093740282EC90E0909377028093760290
:1012D00086EC90E0909379028093780210927B02E2
:1012E00010927C0210927D0210927E020895089561
:1012F0000E941D050E9477090E942404C3E8D7E0DC
:101300000E9428042097E1F30E948307F9CFCF922F
:10131000DF92EF92FF920F931F93CF93DF936C01B5
:101320007A01EB01E60EF71E00E010E0CE15DF05B6
:1013300061F06991D601ED91FC910190F081E02D71
:10134000C6011995080F191FF1CFC801DF91CF9180
:101350001F910F91FF90EF90DF90CF90089561154E
:10136000710581F0DB010D900020E9F7AD014150DE
:101370005109461B570BDC01ED91FC910280F38172
:10138000E02D199480E090E008950C94AF09DC0101
:10139000ED91FC910190F081E02D19940F931F9332
:1013A000CF93DF93EC016DE00E94C7098C016AE0E6
:1013B000CE010E94C709800F911FDF91CF911F912D
:1013C0000F9108950F931F93CF93DF93EC010E9429
:1013D000AF098C01CE010E94CE09800F911FDF91D1
:1013E000CF911F910F9108958F929F92AF92BF92CC
:1013F000CF92DF92EF92FF920F931F93CF93DF93E1
:10140000CDB7DEB7A1970FB6F894DEBF0FBECDBF44
:101410007C01C42EE52FCB01D22E19A221E02D157F
:1014200010F02AE0D22E8E010F5D1F4F8D2C912CD3
:10143000A12CB12C6C2D7E2FA50194010E94DF0EF2
:101440008C2DD29E80191124015011098A3014F478
:10145000805D01C0895CF80180832115310541055B
:10146000510521F0C22EE32FCA01E4CFB801C70114
:101470000E94AF09A1960FB6F894DEBF0FBECDBF94
:10148000DF91CF911F910F91FF90EF90DF90CF9060
:10149000BF90AF909F908F900895CF92DF92EF9280
:1014A000FF920F931F93CF93DF93EC016A017B01AF
:1014B0002115310579F4E881F9810190F081E02D61
:1014C000642FDF91CF911F910F91FF90EF90DF90EC
:1014D000CF9019942A303105E9F477FF1AC06DE2F4
:1014E0000E94C7098C0144275527BA014C195D0990
:1014F0006E097F092AE0CE010E94F409800F911F36
:10150000DF91CF911F910F91FF90EF90DF90CF90DF
:1015100008952AE0B701A601CE01DF91CF911F9176
:101520000F91FF90EF90DF90CF900C94F4090F9300
:101530001F93CF93DF93EC019A01AB01662757FD10
:101540006095762F0E944D0A8C01CE010E94CE0933
:10155000800F911FDF91CF911F910F9108954F92AE
:101560005F926F927F928F929F92AF92BF92CF9233
:10157000DF92EF92FF920F931F93CF93DF93EC01D3
:101580006A017B01B22E9A01AB01C701B6010E942C
:10159000CB0E882319F069E372E027C026013701DA
:1015A000E89477F82FEF3FEF4FE75FE7C301B20111
:1015B0000E94CB0E81110DC02FEF3FEF4FE75FE789
:1015C000C301B2010E94150D18161CF46DE372E000
:1015D0000CC02FEF3FEF4FE75FE4C701B6010E9459
:1015E000640E1816ACF461E472E0CE01DF91CF9185
:1015F0001F910F91FF90EF90DF90CF90BF90AF9031
:101600009F908F907F906F905F904F900C94AF0958
:101610002FEF3FEF4FE75FECC701B6010E94150DBA
:1016200087FDE1CF20E030E0A901C701B6010E94AB
:10163000150D87FF0AC06DE2CE010E94C7098C011B
:10164000F7FAF094F7F8F09402C000E010E0A12C53
:1016500060E070E080E09FE3AB1441F020E030E018
:1016600040E251E40E94190DA394F6CF9B01AC0116
:10167000C701B6010E94B10C6B017C010E94860D6E
:101680002B013C010E94B20D9B01AC01C701B601C8
:101690000E94B00C6B017C012AE0B301A201CE01D3
:1016A0000E94F409080F191FBB2039F065E472E0AD
:1016B000CE010E94AF09080F191F7B2C772041F142
:1016C00020E030E040E251E4C701B6010E94680E1C
:1016D0006B017C010E94810D4B01AA2497FCA09410
:1016E000BA2C2AE030E0B501A401CE010E944D0AD7
:1016F000080F191FC501B4010E94B40D9B01AC0174
:10170000C701B6010E94B00C6B017C017A94D6CF60
:10171000C801DF91CF911F910F91FF90EF90DF9063
:10172000CF90BF90AF909F908F907F906F905F9081
:101730004F9008950F931F93CF93DF93EC010E9476
:10174000AF0A8C01CE010E94CE09800F911FDF915C
:10175000CF911F910F9108950F931F93CF93DF9314
:10176000EC010E94C604688779878A879B87E88195
:10177000F9810084F185E02DCE01199597FF15C000
:101780000E94C604088519852A853B85601B710B5C
:10179000820B930B0C811D812E813F816017710795
:1017A0008207930720F38FEF9FEFDF91CF911F9177
:1017B0000F910895CF93DF93EC01CE010E94AC0B03
:1017C00097FD11C08D32910571F09C0120533109B4
:1017D0002A30310540F0E881F9810680F781E02D5B
:1017E000CE011995EACFDF91CF910895CF92DF9284
:1017F000FF920F931F93CF93DF9300D01F92CDB72B
:10180000DEB76C01062F0E94DA0BFC0197FD4BC07E
:1018100020E030E0A901F12C112707FD1095E01719
:10182000F107E9F0ED32F105C1F0CF01C0970A9759
:10183000B0F4AAE0B0E00E94260F9B01AC01CF01FA
:10184000AA2797FDA095BA2F280F391F4A1F5B1FA3
:10185000205331094109510902C0FF24F394D601F4
:10186000ED91FC910680F781E02DC60129833A8332
:101870004B835C831995C6010E94AC0BFC01C09799
:1018800029813A814B815C810A9748F2E017F10780
:1018900031F2FF2061F066277727CB01621B730BC3
:1018A000840B950B06C060E070E0CB0102C0CA015A
:1018B000B9010F900F900F900F90DF91CF911F9172
:1018C0000F91FF90DF90CF90089561E00C94F60B9C
:1018D0004F925F926F927F92AF92BF92CF92DF92C0
:1018E000EF92FF920F931F93CF93DF93CDB7DEB7A5
:1018F00029013A01621B730B840B950B2A893B89E2
:101900004C895D892A193B094C095D092A8B3B8B5F
:101910004C8B5D8B9B01AC016A897B898C899D898D
:101920000E94CF0EE418F50806091709A8019701CF
:101930000E94010F2A0D3B1D4C1D5D1DCA01B901FE
:10194000DF91CF911F910F91FF90EF90DF90CF909B
:10195000BF90AF907F906F905F904F9008950895E3
:101960005058BB27AA270ED075C166D130F06BD175
:1019700020F031F49F3F11F41EF45BC10EF4E095AA
:10198000E7FB51C1E92F77D180F3BA1762077307DC
:101990008407950718F071F49EF58FC10EF4E09559
:1019A0000B2EBA2FA02D0B01B90190010C01CA0119
:1019B000A0011124FF27591B99F0593F50F4503EC4
:1019C00068F11A16F040A22F232F342F4427585FB6
:1019D000F3CF469537952795A795F0405395C9F7CE
:1019E0007EF41F16BA0B620B730B840BBAF0915086
:1019F000A1F0FF0FBB1F661F771F881FC2F70EC025
:101A0000BA0F621F731F841F48F4879577956795F7
:101A1000B795F7959E3F08F0B3CF9395880F08F0E0
:101A20009927EE0F979587950895D9D008F481E00E
:101A300008950CD00FC107D140F0FED030F021F452
:101A40005F3F19F0F0C0511139C1F3C014D198F3C0
:101A50009923C9F35523B1F3951B550BBB27AA272F
:101A600062177307840738F09F5F5F4F220F331FA1
:101A7000441FAA1FA9F333D00E2E3AF0E0E830D06D
:101A800091505040E695001CCAF729D0FE2F27D070
:101A9000660F771F881FBB1F261737074807AB073E
:101AA000B0E809F0BB0B802DBF01FF2793585F4FB3
:101AB0002AF09E3F510568F0B6C000C15F3FECF3CD
:101AC000983EDCF3869577956795B795F7959F5F78
:101AD000C9F7880F911D9695879597F90895E1E0CC
:101AE000660F771F881FBB1F621773078407BA072B
:101AF00020F0621B730B840BBA0BEE1F88F7E09586
:101B0000089504D06894B111D9C00895BCD088F06C
:101B10009F5790F0B92F9927B751A0F0D1F0660FD9
:101B2000771F881F991F1AF0BA95C9F712C0B130F4
:101B300081F0C3D0B1E00895C0C0672F782F882707
:101B4000B85F39F0B93FCCF3869577956795B39533
:101B5000D9F73EF490958095709561957F4F8F4FA2
:101B60009F4F0895E89409C097FB3EF490958095A7
:101B7000709561957F4F8F4F9F4F9923A9F0F92F53
:101B800096E9BB279395F695879577956795B795D1
:101B9000F111F8CFFAF4BB0F11F460FF1BC06F5FB7
:101BA0007F4F8F4F9F4F16C0882311F096E911C0C9
:101BB000772321F09EE8872F762F05C0662371F0EA
:101BC00096E8862F70E060E02AF09A95660F771FFE
:101BD000881FDAF7880F9695879597F90895990FDA
:101BE0000008550FAA0BE0E8FEEF16161706E807E7
:101BF000F907C0F012161306E407F50798F0621B08
:101C0000730B840B950B39F40A2661F0232B242BDC
:101C1000252B21F408950A2609F4A140A6958FEFFB
:101C2000811D811D089597F99F6780E870E060E04D
:101C300008959FEF80EC089500240A941616170665
:101C400018060906089500240A94121613061406AD
:101C500005060895092E0394000C11F4882352F010
:101C6000BB0F40F4BF2B11F460FF04C06F5F7F4FC8
:101C70008F4F9F4F089557FD9058440F551F59F0AF
:101C80005F3F71F04795880F97FB991F61F09F3F69
:101C900079F087950895121613061406551FF2CF92
:101CA0004695F1DF08C0161617061806991FF1CFE2
:101CB00086957105610508940895E894BB27662709
:101CC0007727CB0197F908958ADF08F48FEF0895FD
:101CD0000BD0C0CFB1DF28F0B6DF18F0952309F0A4
:101CE000A2CFA7CF1124EACFC6DFA0F3959FD1F3EF
:101CF000950F50E0551F629FF001729FBB27F00DBA
:101D0000B11D639FAA27F00DB11DAA1F649F66270E
:101D1000B00DA11D661F829F2227B00DA11D621F5D
:101D2000739FB00DA11D621F839FA00D611D221F17
:101D3000749F3327A00D611D231F849F600D211DFB
:101D4000822F762F6A2F11249F5750408AF0E1F09E
:101D500088234AF0EE0FFF1FBB1F661F771F881FE7
:101D600091505040A9F79E3F510570F05CCFA6CF2F
:101D70005F3FECF3983EDCF3869577956795B795D2
:101D8000F795E7959F5FC1F7FE2B880F911D9695FC
:101D9000879597F9089523DF880B990B0895DB0148
:101DA0008F939F930E94260FBF91AF91A29F800DAA
:101DB000911DA39F900DB29F900D11240895A1E253
:101DC0001A2EAA1BBB1BFD010DC0AA1FBB1FEE1FB5
:101DD000FF1FA217B307E407F50720F0A21BB30B00
:101DE000E40BF50B661F771F881F991F1A9469F77C
:101DF00060957095809590959B01AC01BD01CF01D8
:101E00000895052E97FB1EF400940E94180F57FDAD
:101E100007D00E94DF0E07FC03D04EF40C94180F7D
:101E200050954095309521953F4F4F4F5F4F089506
:101E300090958095709561957F4F8F4F9F4F089536
:101E4000EE0FFF1F0590F491E02D19940E94350FBD
:101E5000A59F900DB49F900DA49F800D911D1124FE
:101E600008950790F691E02D1994A29FB001B39FB9
:101E7000C001A39F700D811D1124911DB29F700D93
:0C1E8000811D1124911D0895F894FFCFDE
:101E8C000000FF0280000100000001363738393AAB
:101E9C00020304050656313A0056323A0056543ABB
:101EAC0000464C3A0056413A0000000000030887F7
:101EBC000956076F076107E1076E616E00696E6670
:081ECC00006F7666002E000095
:00000001FF
